:020000022000DC
:1070000000000220757302005D7302005F730200CE
:1070100061730200637302006573020000000000E8
:107020000000000000000000000000006773020084
:1070300069730200000000006B7302006D730200B0
:10704000A98B02006F730200F58B02006F730200C0
:107050006F7302006F7302006F730200C58C020031
:107060006F7302006F7302006F7302006F73020090
:107070006F7302006F7302006F7302006F73020080
:107080006F730200597402006F7302006F73020085
:10709000F57402006F730200FD9A02006F73020024
:1070A0006F7302006F7302006F7302006F73020050
:1070B0006F7302006F730200000000000000000008
:1070C0006F7302006F7302006F7302006F73020030
:1070D000118C02006F7302006F7302006F73020065
:1070E0006F730200000000000000000000000000BC
:1070F000000000006F730200000000006F730200C8
:10710000000000000000000000000000000000007F
:10711000000000000000000000000000000000006F
:10712000000000000000000000000000000000005F
:10713000000000000000000000000000000000004F
:10714000000000000000000000000000000000003F
:10715000000000000000000000000000000000002F
:10716000000000000000000000000000000000001F
:10717000000000000000000000000000000000000F
:1071800000000000000000000000000000000000FF
:1071900000000000000000000000000000000000EF
:1071A00000000000000000000000000000000000DF
:1071B00000000000000000000000000000000000CF
:1071C00000000000000000000000000000000000BF
:1071D00000000000000000000000000000000000AF
:1071E000000000000000000000000000000000009F
:1071F000000000000000000000000000000000008F
:10720000354936480A1A02D0072291438D4634493F
:1072100034480A1A06D00722914381F309880222D2
:1072200082F3148830483149314A00F044F831483B
:107230003149324A00F03FF831483249324A00F0D1
:107240003AF832483249334A00F035F83248334987
:10725000334A00F030F833483349344A00F02BF811
:1072600033483449344A00F026F83448344900227F
:1072700000F02CF833483449002200F027F8334856
:107280003349091A082902DB002202604160314AB1
:1072900090471F481F49884205D00268043003B454
:1072A000904703BCF7E700208646EC46002000210B
:1072B000294A9047FEE7884207D0521A05D0037842
:1072C00001300B700131013AF9D17047884202D088
:1072D00002700130FAE770470000022000E0012050
:1072E0000000022000000220ACA902009032002021
:1072F000C8320020D0730200D0730200989E0200B2
:10730000ACA902009032002090320020F89E0200CA
:10731000F89E0200F89E0200F89E0200F89E02000D
:10732000F89E0200F89E0200F89E0200ACA902003E
:10733000E4A90200C8320020C8320020C832002070
:10734000EE340020F0340020F0340020F03400202F
:10735000F05400209D730200B5930200FEE7FEE7A3
:10736000FEE7FEE7FEE7FEE7FEE7FEE7FEE7FEE7F5
:1073700000F002B8FFF7FCBF0F484FF00701884349
:1073800085460E4880470E48016841F4700101604F
:10739000BFF34F8FBFF36F8FFFF732BF09480A4922
:1073A0000A4A884207D0521A05D0037801300B7080
:1073B0000131013AF9D1704700000220198A020018
:1073C00088ED00E0E09E020078320020903200203C
:1073D0001FB50021039001AA44F20100CDE901117B
:1073E00000F004F805B05DF804FB000072B6094B2C
:1073F000D3F8F020D20700D500BEBFF34F8FD96875
:10740000054A01F4E0610A43DA60BFF34F8F00BF21
:10741000FDE700BF00ED00E00400FA05094B5A78D3
:1074200099780132D2B2914208BF00221978914274
:107430001FBF02705878182202FB003014BF0430BE
:1074400000207047C8320020024B4FF43C6043F0EC
:1074500001031847009F0200F8B51F4B1F491B6826
:107460000025C1F84051C1F84451C1F84851C1F854
:107470004C51C1F80051C1F804514BB3D1F8044547
:1074800017490968641A24F07F442F461A68A242FB
:1074900009D8A41A15441A7CDE691AB1D3E905206B
:1074A0001F749047AEB90F4A0F4B11781B788B426F
:1074B00005D10133DBB2022B08BF00231370127811
:1074C0000A4B43F822500A4B4FF48012C3F80021B4
:1074D000F8BD3346DAE700BFE83300200010014072
:1074E000E4330020E1330020E0330020D8330020D3
:1074F00000E100E02DE9F04FA04AA1491378097896
:10750000A04D994285B03CD00133DBB2022B08BFBD
:10751000002313709C4912789C4B0F6853F822008B
:107520003B1823F07F4300220B602B68164614465D
:10753000944613B942B12B6006E0196881420ED916
:1075400002B12B60091A196001272B68DFF844A2E9
:1075500001934FF00008BEB9DFF840B260E0401A76
:107560000C44D968D3F81CE0C3F800C031B13A1913
:1075700022F07F42C3E90121DE611E4673460122EB
:10758000D7E700263746E0E73446F6697E4B606869
:107590001B68DFF80CC2A168C21A22F07F42624564
:1075A00000F2A6800A442260012222742A68002385
:1075B000C4E90133E361002A40F0A3802C60CAE7EC
:1075C0009BF802105A1CD2B291428BF8002004BFE3
:1075D00000228BF80020182202FB03B32A681979D5
:1075E0009C68022975D003297FD0012918D1207CFD
:1075F000B0B9D3E90312A2605A69E2609A69644B98
:10760000A2611A78002A18BF01466160BEE78C4269
:1076100000F091808946C9690029F8D100232374BC
:107620009BF800309BF801209A42C9D12B68B8F131
:10763000000F04D1019A9A4201D1002F43D0002BB0
:1076400041D0D3F800A0534D4F4BD5F804751C68BA
:10765000DFF850813E1B98F8003026F07F46033655
:107660009BB94FF48033C5F84433C5F804334A4B13
:107670004FF40032C3F880211A604FF00109C5F8B9
:107680000090FFF7E1FE88F80090B2452CBF54440B
:10769000A41924F07F44C5F84045D5F80435DB1B18
:1076A00023F07F43E41B033324F07F44A3420AD931
:1076B000D5F80435C5F84035FFF7C6FE364B4FF414
:1076C0000032C3F80021324B00221A7005B0BDE829
:1076D000F08F114691469FE71174D2690123002A69
:1076E000FAD1002B9CD02A609AE700231946F6E7CE
:1076F0001B1A23F07F438B4234BFCB1A0023236035
:1077000052E721681368994213D85B1A1360E2614B
:1077100054E7091AD8691A4638B1034618688842EE
:10772000F7D3401A1860184613462160E061DC6107
:1077300011E71346F2E74C4511D1D3692B6073B9B9
:10774000DFF844E00120CDE90212CAF80800CEF8C3
:1077500000300F4B1870FFF777FEDDE902120B685F
:10776000C969C9F81C1011B1086803440B602B6883
:10777000934218BF4FF0010850E700BFE0330020EC
:10778000E1330020E8330020E4330020D833002028
:10779000D43300200010014000E100E0C832002096
:1077A000FEFF7F00D53300202DE9F0411D4E4FF440
:1077B0000033C6F88030BFF34F8FBFF36F8F1A4D81
:1077C000DFF87C804FF480330127C5F84833C5F8D3
:1077D00008336F600024FFF737FEAF60C8F8004041
:1077E000FFF732FE114B1C70114B0B221C809A705C
:1077F000104B1C60104B1C70104B4FF480121C700F
:10780000C023C6F8802186F814333260C5F80875A5
:1078100086F81133D5F80435C8F800302046BDE8A5
:10782000F08100BF00E100E000100140D5330020EE
:10783000C8320020E8330020E0330020E13300208C
:10784000E4330020074B9B784BB132B128B1036879
:10785000187C20B959745A61704707207047082076
:10786000704700BFC83200202DE9F743DFF88C8055
:1078700098F8023005460E461746BBB3B0B31C4B12
:107880004A1F9A4230D8436983B3437C0024012BBA
:107890000DF107000CBF8946A1468DF8074000F0A6
:1078A0002FF80DF10600FFF7B9FDD8B101230370E1
:1078B000104B4560D3F80435C0E90497C0E902369F
:1078C0009DF8063088F801309DF8070000F03CF87C
:1078D00024B9094B4FF48012C3F80021204603B0AD
:1078E000BDE8F0830424EFE70724F7E70824F5E771
:1078F000FAFFFF000010014000E100E0C832002064
:1079000070B5EFF3108672B60C4A946801239CB9E7
:1079100093600B4B0B4DD3F8801029401160C3F8D6
:107920008050D3F8841051604FF0FF32C3F88420A8
:10793000047006B962B670BD0370FAE7EC3300203C
:1079400000E100E0FC06FFBD084B9A6810B55AB193
:1079500050B9EFF3108172B6054A1C6814605C6878
:107960005460986001B962B610BD00BFEC330020CE
:1079700000E100E02DE9F0478368D3F84831C3F314
:1079800040059B0788B0074606D50022114608B07F
:10799000BDE8F04700F062BA012906D91E4A02216B
:1079A00008B0BDE8F04700F02DBA1C4C1C4EDFF8C3
:1079B00074A04FF06408A946361B1823B6FBF3F6F3
:1079C000AE4204F1180402D108B0BDE8F08754F8C3
:1079D000180C54E90523017900689A1A1B1ADBB2C6
:1079E000039308FB03F3B3FBF2F3CDE9019334F8FF
:1079F000043C0093CDE9061254F8083C11FB08F151
:107A00003846B1FBF2F1CDE904215246082100F0DD
:107A1000F9F90135D4E700BF069F0200B09E0200CD
:107A2000B09E0200199F02002DE9F843089E1D46F2
:107A30000C46F1B9194E1A49891BB2EBD10F4FEA26
:107A4000D10905D2174F043607EB8207A14502D1B1
:107A500000232B6009E056F834803868D8F800100D
:107A600002F0C3F918B9C5F80080BDE8F883013405
:107A7000ECE70028ECD00178436839B13146104674
:107A800098473368002BE3D02E60EEE7110103EB3B
:107A900002125B58002BDBD02A60E6E7B09E0200A2
:107AA000E09E02007832002008B102F0C5B97047AC
:107AB00007B58368DA7E8A421ED01B228DF800202B
:107AC0005B228DF8012031228DF802203B228DF8B7
:107AD000032033228DF8042001F12F028DF80520B8
:107AE0006D22D9768DF8062000228DF807200449F2
:107AF00000696A4600F091FC03B05DF804FB00BF2A
:107B0000D1A002000A4609B1FFF7D2BF8168CA7648
:107B10000069024A024900F080BC00BF71A4020063
:107B2000D1A0020007B583681A7F8A4218D01B22B1
:107B30008DF800205B228DF8012034228DF8022080
:107B400001F12F028DF803206D2219778DF80420A2
:107B500000228DF80520044900696A4600F05DFCAA
:107B600003B05DF804FB00BFD1A002002DE9F34192
:107B700005460F461446002614B902B0BDE8F08150
:107B8000686803682246D3F80C80B91901ABC04776
:107B9000019B1E44E41A002BEED1AB681A78032A2D
:107BA000EAD0D3F848219206FBD5B3F848216FF309
:107BB0004512A3F84821DFE70A46014900F02DBC31
:107BC00030A0020011B10069FFF7F6BF7047000056
:107BD000014900F022BC00BFA59F02000A4619B16E
:107BE0000249006900F019BC704700BF36A00200CE
:107BF0000A4619B10249006900F00FBC704700BF86
:107C00003CA002002DE9F04F044685B00E46904698
:107C10000025705D02F088F820BB5FFA88FA3046D4
:107C2000FFF742FFA3685B7E401BA3EB080B5845A0
:107C300006EB050918D94A46002712F8011B0393E1
:107C400008460292019102F06FF8DDE9022318B1B3
:107C500001990A2931D0BB4608EB07018B422BD989
:107C60000137EAE70135D4E74B460027B84217D081
:107C700013F8012B0A2A05EB070A1BD1206900F033
:107C8000C1FB49463A462046FFF770FF2069FFF7DF
:107C90009FFF5FFA88F120460AF10105FFF792FF86
:107CA0002069711900F0B9FB206905B0BDE8F04FFB
:107CB000FFF78EBF0137D9E75F46206900F0A2FBCE
:107CC0003A4649462046FFF751FF3D44705D02F0B9
:107CD0002BF838B92069FFF77BFF51462046FFF7A4
:107CE00071FF9CE70135F1E72DE9F3410546806816
:107CF000424F002480222146A0308DF8034002F03C
:107D000041F83F49286900F088FB286900F07AFBB8
:107D10004FF47A7647F00107686803680122D3F8C8
:107D200010800DF1030101ABC047019B5BB94FF619
:107D3000C010B847019B002BEED1013EB6B2002E19
:107D4000EAD10D2035E09DF80330AA681B2B48D0FE
:107D500092F8A0101B29EDD1522B42D114440023DC
:107D600084F8A03092F8A1105B291FD102F1A2067D
:107D700002211D4616F8010B4C1C3B28E1B264B2EF
:107D80001AD1002C20DB01F1A0041444002314F8C4
:107D9000010BD8B9FA2B28BFFA23FA2D13752B46FD
:107DA00028BFFA23937582F8A00002E082F8A03081
:107DB0000B2002B0BDE8F08105EB850300EB430327
:107DC000303B80299DB2D5D10C20F2E703EB830331
:107DD00000EB43004E1C303883B23006F1B2F3D4CE
:107DE000D5E711190134E4B2092C81F8A030A1D9EA
:107DF000002382F8A0300420DBE700BF90A402003B
:107E00007EA402000CB473B506AB044653F8046BB1
:107E100001938368D3F848516D0719D5DD7E8D42F3
:107E200016D0B3F81B50FFF76DFE206901AA31464A
:107E300000F06AFBE9B22046FFF764FE290A02D08F
:107E40002046FFF76FFE02B0BDE8704002B07047F9
:107E5000206901AA314600F057FBF4E72DE9F04F05
:107E60008BB0836817466C4A009204466B4A5B6885
:107E70000D460821FFF7C6FFA6687068FFF714FEDD
:107E8000B168033082B211B12046FFF7BBFE644AED
:107E900000212046FFF7B6FF002F3DD0002D3BD03C
:107EA0004FF00C0AA9460AFB075A0826D9F8040025
:107EB000FFF7FAFD8046D9F80000FFF7F5FD4044D2
:107EC000B04209F10C0988BF86B2CA45EED106F16D
:107ED0000408544B544A00931FFA88F806F1070926
:107EE0000821204643461FFA89F9FFF78BFF4F49C7
:107EF0004A462046FFF786FE2DB1DFF82CB14FF041
:107F0000000ABA450AD1A368D3F80C80B8F1000F73
:107F10003ED10BB0BDE8F08F0826D8E7D5E90023A5
:107F200073B32AB30192424A00920821414A204683
:107F3000FFF768FF6868FFF7B7FD03902868FFF751
:107F4000B3FD0399B31C591A091AC9B22046FFF7A9
:107F500039FE394920693A2200F05FFAA96899B1DF
:107F60004A462046FFF74EFE0AF1010A0C35C8E7E3
:107F7000009343465A4608212046FFF743FFEDE7AA
:107F8000002AEBD00092F4E72069FFF721FEEBE72F
:107F900000220592174606AE009605AB0121404629
:107FA00002F10109FFF740FD059D3DB12868FFF78B
:107FB0007BFDB84200D987B24A46EDE7B9F1010F1F
:107FC000A7D01E4ADFF860A029462046FFF71AFF17
:107FD0002A46BD1CADB205AB00960121404602F118
:107FE0000109FFF721FD059B002B92D01B68009330
:107FF00008212B4652462046FFF704FF059B59688F
:1080000031B17A1D92B22046FFF7FCFD4A46E2E705
:108010002069FFF7DDFDF9E783A40200CBA0020091
:10802000D4A0020096A40200DEA00200E6A0020096
:10803000FCA50200F9A0020048A0020002A1020073
:1080400000221146FFF70ABF022910B5044608D1E5
:108050008368D3F848319B0703D5BDE81040FFF78C
:10806000EFBF2069054A064900F0D7F92069054AA3
:108070000349BDE8104000F0D0B900BF7AA4020067
:10808000D1A0020075A40200012906D0022906D160
:108090008368D3F848319B0701D5FFF7D1BF024A67
:1080A0000221FFF7AFBE00BF7DA0020038B5836894
:1080B000D3F84821C2F3400592070C4606D50022AA
:1080C0001146FFF7CBFE2C46204638BD0029FBD0D9
:1080D0005B68024A0221FFF795FEF5E710A1020056
:1080E000012937B50546144604D103B0BDE8304038
:1080F000FFF7A6BF023918BF0121FFF7D7FF48B924
:1081000063680193044B0093044A236802212846C4
:10811000FFF778FE03B030BD34A102002BA10200AE
:10812000012907B504D103B05DF804EBFFF788BF60
:1081300002290AD153680193084B00931368084A37
:10814000FFF760FE03B05DF804FB8CBF0121002146
:1081500003B05DF804EBFFF7A9BF00BF34A1020034
:108160002BA10200013910B518BF01210446FFF709
:108170009DFF40B9044A0549206900F04EF9A36803
:1081800045F218021A8310BD6BA40200D1A00200B0
:108190000129F7B50446154633D18568FFF7A4FDDC
:1081A00018BBA36820691F7D9E7DFA21FFF704FD9F
:1081B00020691D49FA2200F030F92046FFF794FDAE
:1081C00098B9A368197D6976A368C91B9B7D2B7636
:1081D0002046C9B2FFF702FD297E891BC9B220469D
:1081E00003B0BDE8F040FFF703BDA36845F21802F5
:1081F0001A830E4A0421204603B0BDE8F040FFF781
:1082000001BE022994BF00210121FFF74FFF48B9A9
:108210006B680193064B00932B68064A02212046A7
:10822000FFF7F0FD03B0F0BD42A0020049A102003B
:1082300034A102002BA102002DE9F041013986B0E2
:1082400018BF01210546FFF731FF40BBAB68DFF8DF
:108250005480D3F840610446EEB1082C1BD0304660
:108260000023092203A900F0BBFB9DF81420A96894
:10827000304609230132A03100F0B2FBAB68049E06
:10828000A0330093671C2346424600212846FFF78F
:10829000B9FD3C46E0E7AB68002283F8A02006B0B9
:1082A000BDE8F08183A10200013910B518BF01219A
:1082B0000446FFF7FBFE30B9A368B3F8482160F32A
:1082C0008202A3F8482110BD013910B518BF012161
:1082D0000446FFF7EBFE30B9A268B2F8483143F02C
:1082E0000403A2F8483110BD013910B518BF0121AF
:1082F0000446FFF7DBFE30B9A368B3F8482160F30A
:10830000C302A3F8482110BD013910B518BF0121DF
:108310000446FFF7CBFE30B9A268B2F8483143F00B
:108320000803A2F8483110BD022973B50D4694BF69
:108330000021012104461646FFF7B8FE014658B950
:10834000022D0BD1736801930C4B00930C4A3368D8
:1083500029462046FFF756FD02B070BDA368094AC2
:10836000D3F8483113F0080F074B18BF1346074ADC
:10837000204602B0BDE87040FFF744BD34A10200C2
:108380002BA102008DA1020090A1020094A1020085
:10839000013910B518BF01210446FFF787FE48B91F
:1083A000A368C3F83801E3685B68BDE8104018684B
:1083B00000F0B9BA10BD00007FB5013918BF012126
:1083C0000446FFF773FE0546B8B9E3685B681E68AC
:1083D000304600F0A5FAB268A168C3B2CDE9013217
:1083E00064204343B3FBF2F3DBB20093D1F838319E
:1083F000034A29462046FFF705FD04B070BD00BFC3
:10840000A5A10200826810B504462AB1436901683B
:10841000006998470023A36010BD0EB403B503990B
:1084200021B104AB01AA019300F06EF802B05DF82F
:1084300004EB03B07047826830B40468551C856053
:10844000A154D0E901329A4202D330BCFFF7DABF1F
:1084500030BC70472DE9F84F9846DDE90A431546D0
:1084600082460F460A464FF00109AA420FD2C14583
:1084700038BFC14613F0010B01D16CB900240126AD
:10848000B8F1010F1BD908F1FF386E43F8E709F185
:108490000109B2FBF5F2E8E79B070ED5B8F1000F32
:1084A0000CBF30262026A145E9D2013C314650467A
:1084B000FFF7C1FF002CF6D1E0E72026F3E7B7FB7A
:1084C000F6F39D42E1D9DFF83C80B7FBF6F3504666
:1084D00018F8031006FB1377FFF7ADFF3346AB42E6
:1084E000B6FBF5F6F1D2BBF1000F02D00CB1A145FD
:1084F00001D3BDE8F88F20215046013CFFF79BFFD8
:10850000F4E700BFFFA502002DE9F74F0546174627
:108510008846002900F03E8118F8011B49B92B7BE1
:10852000002B00F03781284603B0BDE8F04FFFF77D
:1085300069BF252940F0B780002698F800302D2B20
:10854000424608F1010823D0302B24D02B2B25D014
:1085500000242A2B02F1010123D13B681A1D1B685C
:108560003A601C440A4613782E2B26D101324FF074
:10857000000A104610F8011BA1F1300CBCF1090FE4
:108580001DD80A2303FB0A13A3F1300A0246F0E7C1
:1085900046F00106D1E746F00206CEE746F00406B3
:1085A000CBE711F8013CA3F130000928DBD80A22FF
:1085B00002FB0434303C0A46CBE74FF0000A12F8C5
:1085C000011B01F0FB0068289046F8D0782909D8F3
:1085D0006F290CD8632962D022D8252963D0582965
:1085E00000F0888098F80030002B95D197E770391B
:1085F0000829F7D801A353F821F000BF6F870200C4
:10860000E5850200E585020005870200E585020098
:10861000E3860200E5850200E5850200F58602009A
:10862000642901D06929DDD13A68D2F80090111D82
:1086300089EAE9723960A2EBE9724FF0010B092A6D
:1086400035DCD34538BFD3462CB1B9F1000F01DB7F
:10865000720700D5013CB30702D5BAF1000F03D071
:10866000F00701D44CBB0024B9F1000F2DDAC9F199
:1086700000092D212846FFF7DEFE06F00302022A3C
:1086800004D1BAF1000F01D11CBB0024CDE9004692
:1086900053460A2249462846FFF7DCFEA2E73B681C
:1086A0001A1D19783A602846FFF7C5FE9AE70A2393
:1086B0000BF1010BB2FBF3F2C1E7A345D4D22021A9
:1086C0002846013CFFF7B7FECCE77107D5D52B2133
:1086D000D0E7A345DAD230212846013CFFF7ABFEB4
:1086E000D2E73968CDE900460A1D3A6053460A22AE
:1086F0000968D0E739680A1D3A60CDE9004653465B
:108700001022F5E73B681A1D3A6016F00106D3F80F
:10871000009024D1B9F1000F03D0484601F08CFB42
:108720000646B4421DD809F1FF3919F8011F002986
:108730003FF458AF2846FFF77EFEF6E7284601369D
:10874000FFF779FE19F806100029F7D1A642BFF409
:1087500049AF20212846013CFFF76DFEF6E70026D1
:10876000F0E720212846013CFFF765FED9E73B688A
:108770001A1D3A60302128461C68FFF75CFE7821FC
:108780002846FFF758FE00220823CDE90032214693
:10879000102280E703B0BDE8F08F00BF41DF7047D3
:1087A000064B10B500241C70054B1C60BFF35F8F97
:1087B0000449054800F0BBF8204610BD00340020F5
:1087C0000434002010A60200F833002007B500236F
:1087D0000DF107008DF80730FFF792F8F1EE103A2F
:1087E00023F09F03E1EE103ABFF35F8F0A4B402264
:1087F000C3F884219DF80700FFF7A6F801F064F99B
:1088000020B103B05DF804EBFFF7C8BF20BF40BF45
:1088100020BF03B05DF804FB00E100E002681368CC
:108820005268934291BFD01A80680130801888BF87
:10883000C01A704713B5002304460DF107008DF8E8
:108840000730FFF75DF82046FFF7E8FF04469DF884
:108850000700FFF779F8204602B010BD2DE9F04F70
:108860008368D3F84831C3F340059B078BB00646B5
:1088700006D5002211460BB0BDE8F04FFFF7EEBA67
:10888000012906D9204A02210BB0BDE8F04FFFF7BD
:10889000B9BA1E4C1E4BDFF88090DFF880A01B1B7E
:1088A0001822B3FBF2F8A84502D10BB0BDE8F08F57
:1088B000E36809932368A768D3F808B02046FFF758
:1088C000B9FF94F810E0134A642303FB00F1BEF1F2
:1088D000000F18BF4A4603FB0BF3B3FBF7F3CDE9D8
:1088E000043BB1FBF7F1099B0191CDE90672CDE99B
:1088F000020700935246636908213046FFF782FA67
:1089000001351834CFE700BF069F0200B09E020079
:10891000B09E02001CA6020025A6020031A602009D
:10892000036898687047036800229A6070470B6874
:108930004A684360934208BF0023016008BF436058
:108940007047436843B10268916852680B44934290
:10895000436004BF0023436070472DE9F84FB0F82F
:1089600006A04579D2F800B09DF828900AFB05F5DD
:10897000043D88460BEB0301A94203F1040488BFC0
:10898000A5EB030BB4FBFAF607460AFB1644C2F844
:1089900000B04EB9AAEB04055D4528BF5D46BBF1AA
:1089A000000F04D1BDE8F88F3F68013EF1E70434C1
:1089B00008EB06003C442A46B9F1000F0DD02146D1
:1089C000ABEB050B01F0B5F9DA452E443F6855468F
:1089D0004FF0000428BF5D46E1E701462046EFE77F
:1089E0001FB503920122009203AAFFF7B6FF05B05C
:1089F0005DF804FB4FF08053D3F83001A0F10D0374
:108A00005842584170470000024AD2F80034002B07
:108A1000FBD0704700E0014008B5FFF7EBFF40B125
:108A20004FF080430022C3F80C21C3F81021C3F893
:108A30003825FFF7DFFF002846D04FF080524E4B1D
:108A4000D2F80414C3F82015D2F80814C3F824157A
:108A5000D2F80C14C3F82815D2F81014C3F82C154A
:108A6000D2F81414C3F83015D2F81814C3F834151A
:108A7000D2F81C14C3F84015D2F82014C3F84415DA
:108A8000D2F82414C3F84815D2F82814C3F84C15AA
:108A9000D2F82C14C3F85015D2F83014C3F854157A
:108AA000D2F83414C3F86015D2F83814C3F864153A
:108AB000D2F83C14C3F86815D2F84014C3F86C150A
:108AC000D2F84424C3F87025FFF794FF48B14FF063
:108AD0008043D3F80024D20744BF6FF00102C3F8EB
:108AE0000024264AD2F8883043F47003C2F8883054
:108AF000BFF34F8FBFF36F8F4FF08053D3F8302108
:108B00000D2A0ED1D3F83431022B02D81C4AD35C83
:108B10003BB14FF01023D3F808224FF08043C3F845
:108B200058254FF01021D1F80C32DB071FD515481E
:108B30000123C0F80435FFF767FFD1F80C3223F0AA
:108B40000103C1F80C32FFF75FFF0023C0F80435C2
:108B5000FFF75AFFBFF34F8F08490B4BCA6802F467
:108B6000E0621343CB60BFF34F8F00BFFDE7074BBD
:108B7000074A1A6008BD00BF00C0004000ED00E0D9
:108B80000CA7020000E001400400FA05903200202A
:108B90000090D00300F18040002382B0036003689E
:108BA0000193019B02B070474FF0804210B5D2F89C
:108BB000003153B14FF48070FFF7ECFF0123C2F88E
:108BC00008330B4B00201B6898474FF08042D2F8C7
:108BD000043163B14FF48270FFF7DCFF0223C2F867
:108BE0000833034BBDE810401B680120184710BD37
:108BF00008340020014B1B68184700BF10340020C8
:108C00000023435082B043580193019B02B0704748
:108C10002DE9F041224E234FDFF88C8000244FF4E1
:108C20008035D7F80433A6F580412B4289B20CD0A9
:108C3000336853B1C7F848533846C7F80853FFF7AD
:108C4000DFFFD8F80030E0B298470134042C4FEA37
:108C5000450506F10406E4D11248D0F80433DA07DA
:108C60000AD5D0F800313BB14FF48071FFF7C8FF4F
:108C70000D4B20461B6898470A48D0F804339B07E1
:108C80000CD5D0F804314BB14FF48271FFF7B8FF27
:108C9000054BBDE8F0411B6805201847BDE8F08191
:108CA00040410240004002401834002000F1804062
:108CB00000F5E040002382B0036003680193019B4C
:108CC00002B07047F0B5524B524CD3F8043185B026
:108CD000002B3DD094F82E204FF48270FFF7E6FF72
:108CE0002AB394F82F3013BB494AD2F80031002B35
:108CF00032D04FF48070FFF7D9FF638B94F82D00CA
:108D0000834250D921891B1A9BB289B26383CB1A43
:108D1000616801EB4303C2F82C36C2F830064FF409
:108D20008270FFF7C3FF3A4B01225A6014E0636878
:108D300002932389ADF80C30E36800218DF804100C
:108D400033BB2374236801A89847002384F82F308D
:108D500094F82E30002BC7D12D4BD3F810315BB1D6
:108D60004FF48870FFF7A2FF0023237402238DF8CD
:108D7000043001A823689847254BD3F81431EBB190
:108D80004FF48A70FFF792FF0023237405B0F0BD03
:108D9000208B608363602081E160002AD2D11C4B6C
:108DA00001221A60CEE7BAD1E368012184F82F10BE
:108DB00013B100216183AEE76383B0E766694FF0CA
:108DC00000470125002EE1D0B6FA86F227FA02F319
:108DD0004632920026EA030602F1804303F5E0439F
:108DE0001B68002BEED01046A2F58C72FFF75EFFD9
:108DF000D30882F00402C2F380028DF808308DF8A7
:108E0000045023688DF8092001A89847DAE700BFCD
:108E1000007000401C34002038B5204A92F82C30F5
:108E20000446002B37D111601D490078C1F8F005C8
:108E30006078C1F8F4050125E078137482F82D30CC
:108E4000536182F82F306FF0004382F82E0082F8D1
:108E50002C504FF48270C1F80833FFF727FF4FF40E
:108E60008070FFF723FF4FF48A70FFF71FFFA3788E
:108E70000C485B01DBB280F80733802303600223D8
:108E8000C1F8043392F82E300BB1C1F80453C1F885
:108E90000055002038BD0820FCE700BF1C3400202E
:108EA0000070004000E100E030B5224B1A7C002A3F
:108EB0003ED100F10C0403EB4402127922B993F87D
:108EC0002D20013283F82D2003EB4403CA790C7A5C
:108ED0008D781A715C714B782D021B0105F4E065E9
:108EE00003F030032B430D7805F003052B43CD78B9
:108EF0002D0305F480552B430D792D0405F4E02551
:108F00002B434D7989792D0505F48015090601F06B
:108F100080712B430B43010101F1804101F5E041D8
:108F20000020C1F81835C1F81445C1F8102530BD2E
:108F30001120FCE71C34002070B5264A264B05465C
:108F40001220C2F808031C7C022C03D1C2F80403CF
:108F5000112070BD187C01281CD1D86818B10223DB
:108F6000C2F80433F4E7DD60198393F82E305BB95F
:108F7000D2F80031002BFBD04FF48070FFF796FE43
:108F8000C2F82C56C2F83016124B0222C3F8042342
:108F90000020DEE7022093F82E40C2F804030126E9
:108FA00000201E745D601981D8603CB1598393F82C
:108FB0002D30C2F82C56C2F83036CAE7C2F82C560B
:108FC0004FF48070C2F83016FFF770FE166020462E
:108FD000BFE700BF007000401C340020074B197C25
:108FE0000129CAB208D193F82E00054B10B11A60BE
:108FF000002070475A607047082070471C340020DA
:1090000000700040024B187C003818BF01207047E8
:109010001C34002072DF704773DF704774DF7047C5
:1090200075DF704776DF704777DF70477ADF70470C
:109030007CDF7047B1DF70474CDF704710B59EB0E2
:1090400041F60F03ADF818300123ADF81C3041F69E
:1090500009022C4BADF824200222ADF828205A1C1E
:109060000B9241F60102ADF830200422ADF8342015
:109070003C2208930021033304460DEB02000E93BB
:1090800000F080FE204B0F9306AB199303238DF85D
:1090900068301E4B1E491A688A4208BF02F11F0140
:1090A0000FA81C4A196000F0BDFA08B1FEF790F94C
:1090B0004CB9224615491848FFF7ACFF08B1FEF736
:1090C00087F91EB010BD18220021684600F05AFE34
:1090D00001238DF80030114B1B68029304238DF897
:1090E000153041F20403ADF816300D4B1B7823B94F
:1090F00006238DF800306A46DCE7012BFBD10A23FA
:10910000F7E700BF7034002002000006983200200C
:10911000773400209C320020A832002094320020B6
:109120004C34002010B50A4C082221780120FFF7AA
:109130007BFF08B1FEF74CF920780121FFF76CFFA7
:1091400008B1FEF745F9034B00221A7010BD00BFAD
:10915000A83200204D34002008B50A4B1878FFF7DC
:109160005DFF094B18884FF6FF73984208D0132112
:10917000FFF758FF28B1054A00231370044A137003
:1091800008BDFEE7A8320020AA3200204D3400209E
:10919000E4340020F7B54A4C4A4DA36A4A4E0133E5
:1091A0001ABAC5F803203278A362012A06D1062232
:1091B000B3FBF2F102FB1133002B7ED101A8FFF7C4
:1091C0003BFF94F82530019A4049013303F007032F
:1091D00084F8253004EB43039A8200231A4631F9C0
:1091E000020B0132082A0344F9D1002BB8BF073320
:1091F00043F3CF03638003EB830303EB83031A1270
:1092000001A8AA706B7000F077F9BDF8042040F651
:1092100047539A420ED8337863B92D4B4FF4165208
:1092200001271A603770FFF797FF3846FFF706FFF0
:10923000FFF778FFBDF8042040F6B3239A420BD81D
:10924000A36A1E2B08D94FF080430122C3F80025E2
:10925000BFF34F8F20BFFDE794F824301D49013341
:1092600003F0070384F8243004EB43039A800022C0
:10927000134631F8020B0133082B0244F9D1D3080D
:1092800040F6B321C2F3CF028A4286BF9BB2A3F657
:10929000B4230023228082BF2622B3FBF2F3DBB289
:1092A0002B700D4B1A884FF6FF739A4205D10020A0
:1092B00003B0BDE8F040FFF7C1BE03B0F0BD00BF92
:1092C000B834002070340020B5340020CC340020A5
:1092D00094320020BC340020AA3200200388202BC6
:1092E00013B5044653D007D8112B22D01F2B33D0EF
:1092F000102B0DD002B010BD522B3BD0562B01D0FD
:109300003B2BF7D1264B13211888FFF78BFE37E054
:10931000234B8188198008220320FFF785FE08B1BE
:10932000FEF756F81F4B187802B0BDE81040FFF763
:1093300075BE1B4B4FF6FF721A801B4B00221A7032
:109340001A4B1B78002BD5D10120FFF777FE02B016
:10935000BDE81040FFF7E6BED0E902016B4683E8A6
:109360000300A0881946FFF75BFE0028C2D0FEF775
:109370002FF8BFE7002380881A461946FFF75AFEE8
:109380000028B7D002B0BDE81040FEF721B8084B66
:1093900090F9092093F90010914218BF1A70A9E7BB
:1093A000AA320020A8320020E43400204D340020EE
:1093B000E53400204FF0804307B50122C3F878253B
:1093C000FEF7F2F908B1FEF703F8224A224801211C
:1093D000FEF738FA08B1FDF7FBFFFFF7E1F908B136
:1093E000FDF7F6FF00F032FB08B1FDF7F1FF0023B7
:1093F00001A90120019300F0BBFB08B1FDF7E8FFD4
:1094000001A800F00DFC08B1FDF7E2FF112313499C
:109410008DF80430062201A8FFF70AFE08B1FDF717
:10942000D7FF0F48FFF702FE08B1FDF7D1FF00F0AC
:1094300031F80120FFF702FEFFF774FE0948002211
:109440004FF48041FEF710FA08B1FDF7C1FFFFF7B6
:10945000BDF9FCE79591020018A702000FA70200D2
:10946000AC3200205034002003787BB943681B885D
:109470004FF4167213FB02F3002BB8BF03F2FF3355
:109480009B12034A03EB83035B001380704700BF0A
:10949000E83400201FB514491448FFF7BDFC08B19B
:1094A000FDF796FF124A10685168127A01AB03C3A8
:1094B0001A7004230DEB030100208DF80630FFF72E
:1094C000F3FC08B1FDF784FF0A480121FFF734FDE2
:1094D00008B1FDF77DFFFFF781FD08B1FDF778FFCB
:1094E00005B05DF804FB00BF6994020025A70200E7
:1094F0001CA70200E634002008B598B10A4B1B886F
:109500000380FFF77FFD68B908480121FFF714FDCC
:1095100008B1FDF75DFFFFF761FD18B1BDE8084038
:10952000FDF756BF08BD00BFE8340020E634002038
:109530006DDF704779DF70477DDF704764DF70470C
:109540002DE9F04F85B000250E9CBDF83CB0B4F875
:1095500000A00191074690461E46A9463A884A4512
:109560000DDC45B12388013BA3EB0A039BB2FF2B23
:109570003AD806F80A30002005B0BDE8F08F7A68C6
:1095800052F82900039000220DF10B0103A8FFF708
:10959000D5FF0028F0D19DF80B20424521D122882B
:1095A000002D14BF0020022002EB080101445945A0
:1095B0001ADC3DB9013292B2019B2280B354228859
:1095C0000132228022880DF10B01324403A8FFF7FB
:1095D000B5FF0028D0D121889DF80B200A442280B5
:1095E000012509F10109B9E70C20C5E72DE9F3418F
:1095F000089FBDF824801546CDE900780222044674
:109600001E46FFF79DFF50B93346102229462046DB
:10961000CDE9087802B0BDE8F041FFF791BF02B094
:10962000BDE8F0812DE9F04F00231788138090F8F2
:109630002D3085B006460D4614465BB3082F01D881
:109640000C2028E102A8FFF773FF002840F02381D7
:109650002388DDF809100822EA54238801339BB2DD
:109660001B222380EA54238801339BB2EA1823800B
:10967000E950BDF80D30938023889DF8082006330B
:109680009BB212F0FE0218BF01222380EA54238805
:1096900001332380B378FBB123880433BB42CFD896
:1096A00002A8FFF747FF002840F0F5802388032237
:1096B000EA54238801339BB219222380EA54238879
:1096C000BDF8082001339BB2E9182380EA54120A3E
:1096D0004A70238802332380F2789AB12388D91CF8
:1096E000B942ADD80221E954238801339BB201214C
:1096F0002380E95423880B449BB22380EA542388B7
:109700000B4423807268AAB12388D91CB94297D828
:10971000022192F90020E954238801339BB20A21E7
:109720002380E954238801339BB22380EA542388A1
:10973000013323803389002B40F0A180338A5BB151
:10974000CDE900472B460722032106F11000FFF761
:109750004DFF002840F09F80338B5BB1CDE900477F
:109760002B461522142106F11800FFF73FFF0028B1
:1097700040F09180326A002A40F09080D6F8248030
:10978000B8F1000F30D0B8F804302188981C8A1C3A
:109790000244BA423FF654AFFE283FF651AF0333BE
:1097A0006B54238801339BB2FF222380EA54238821
:1097B00001339BB22380B8F80020EA54E918120A5A
:1097C0004A702088023080B22080B8F804205AB154
:1097D000D8F8081000296BD0284400F0AAFA238892
:1097E000B8F804201344238096F82C30002B40F066
:1097F0009880307800284ED03388012B58D02288AA
:1098000002F1020CBC453FF61BAF012805D173786D
:10981000023313449F42FFF413AF023FBF1ABFB29B
:1098200002A905EB0C00ADF80870FFF785FE90BBB0
:109830003178BDF80830022900F0B98072789A4278
:1098400002D39F4280F0B180012940F0B28097425C
:1098500093B2C0F0AE80ADF808300821BDF80830F2
:10986000FE2B3FF6EDAE22880133AB542288013245
:1098700092B22280A9542288134423800BE0CDE9C0
:1098800000472B460622022106F10800FFF7AEFE34
:1098900000283FF453AF05B0BDE8F08FB4F800C026
:1098A0000CF10603BB423FF6CBAE1188052901D867
:1098B0000720F0E76FF4486E01EB0E039BB24FF206
:1098C0007D3E7345F4D95388052BF1D96FF4486078
:1098D000181880B27045EBD94FF6FF70814201D065
:1098E0009942E5D8052305F80C30238801339BB253
:1098F00012212380E954238801339BB223801188ED
:10990000E954E818090A4170238802339BB2238086
:109910005288EA54E918120A4A70238802332380D5
:109920002CE7B36A002BC3D04FF000084FF00C0AAD
:109930004FF0160BB16A5FFA88F20AFB02F201EBF4
:109940000209B9F80430981CFE283FF679AE208849
:1099500003332B54238801339BB2238005F803B0D3
:10996000238801339BB223808A5AEA54E918120AE9
:109970004A702088023080B22080B9F804205AB1A1
:10998000D9F80810002993D0284400F0D2F9238890
:10999000B9F804201344238096F82C2008F101081C
:1099A0005FFA88F39A42C5D823E7092156E79F4218
:1099B000FBD2ADF8087050E710DF704713B50446CE
:1099C00009496846FEF7B3FF019808B902B010BD17
:1099D000D0E900212046904718B16846FEF7B1FF54
:1099E000F2E71120F2E700BF30A7020013B50446EA
:1099F00007496846FEF79BFF019B0BB902B010BDFB
:109A00002046D3E9002190476846FEF79AFFF3E726
:109A100048A702000B4991F816335A09EC23134169
:109A2000DB0706D5084B9A683AB94FF480030B6000
:109A3000704742F20200FDF7CBBC1A6842F4800284
:109A40001A60704700E100E0EC330020F7B5194FD1
:109A50003C7864BB184E012520463570FFF7AEFFF9
:109A6000112821D02046FFF7C1FF144B8DF8034089
:109A7000186801900DF10300FDF742FF104901A89D
:109A8000FFF79AFF0446B0FA80F0400938709DF85D
:109A90000300FDF759FF3CB90A4B34701C70FFF707
:109AA000B9FF2846FFF7A2FF204603B0F0BD082407
:109AB000FAE700BFEB340020EA34002029A70200B7
:109AC000ED730200EC340020014B1878704700BFA2
:109AD000EB34002007B508496846FEF728FF019BD4
:109AE00013B903B05DF804FBD3E900209047684642
:109AF000FEF727FFF3E700BF3CA70200FFF7EABF2E
:109B000060DF704769DF704761DF704730B5134D24
:109B1000ADF5017D4FF4FA740DF1020103A8ADF823
:109B20000240FFF7F1FF70B9294601A8FEF7FFFEDA
:109B3000029B002BF0D003A8D3E90021904701A895
:109B4000FEF7FFFEF4E7052805D00DF5017DBDE821
:109B50003040FDF73DBC0DF5017D30BD54A702003E
:109B6000024B1B780BB1FFF7D1BF7047ED340020DB
:109B7000F0B5074685B00D4600294CD00024274A91
:109B80000A60CDE9014401264FF4C8738DF8040042
:109B900001A92020ADF8083003948DF80660FFF786
:109BA000B1FF40F201132A68039401A94020CDE9D6
:109BB0000144ADF806308DF80560FFF7A3FFF723E9
:109BC0002A68039401A92320CDE90144ADF80630A9
:109BD0008DF80470FFF796FF2A68039401A93046B8
:109BE000CDE901448DF80460FFF78CFF4FF4B063BA
:109BF0002A68019301A9A120CDE90244FFF782FF61
:109C00002A68039401A9A020CDE90144FFF77AFF57
:109C1000204605B0F0BD0E20FBE700BF78320020E3
:109C200008B5FFF76DFF10B9014B01221A7008BD8E
:109C3000ED3400204BDF70471FB50E4C01A8FFF735
:109C4000F9FF70B9214602A8FEF771FE039B002BB5
:109C5000F4D00198D3E90021904702A8FEF771FEE5
:109C6000F4E7052804D004B0BDE81040FDF7B0BB10
:109C700004B010BD60A702007F2805D8034B185C14
:109C8000034B5B5C184070470020704778A70200C8
:109C9000F8A70200A0F16103192B98BF2038704784
:109CA000A0F14103192B98BF203070477F2805D8B9
:109CB000034B185C034B5B5C1840704700207047F7
:109CC00078A70200F8A70200A0F16103192B98BF42
:109CD00020387047A0F14103192B98BF20307047FE
:109CE0007F299ABF017001206FF02E0070475AB192
:109CF0000A787F2A0AD800B10260002119605960F1
:109D0000501A18BF01207047002070476FF02E00D6
:109D10007047000008B5034B5B689B681B68984759
:109D200008BD00BFB432002008B50821FFF7F2FFDC
:109D300008BD844640EA010313F0030F18D184469E
:109D4000202A0BD32DE9F007B1E8F807A0E8F807BF
:109D5000A2F12002202AF7D2BDE8F007042A07D397
:109D600051F8043B40F8043BA2F10402042AF7D264
:109D7000002A05D011F8013B00F8013B013AF9D166
:109D8000604670478446002A2DD010F0030F04D09F
:109D900000F8011B013A26D0F7E7C9B241EA0121D8
:109DA00041EA0141202A12D3A2F120022DE9F00359
:109DB0000B460C460D460E460F4688468946A0E8DF
:109DC000FA03203AFBD2BDE8F00320320BD0042A7C
:109DD00005D340F8041B043A05D0042AF9D200F850
:109DE000011B013AFBD16046704710F0030F19D1F7
:109DF00011F0030F16D12DE970004FF001364FF02E
:109E0000803350F8044B51F8045BAC4205D1A4EB0D
:109E1000060525EA04051D40F3D0A0F10400A1F1D8
:109E2000040170BC10F8012B11F8013BD21A01D1CA
:109E3000002BF7D11046704700F1010110F0030F1D
:109E400011D010F8012B002A23D010F0030F0AD0F4
:109E500010F8012B002A1CD010F0030F03D010F8CB
:109E6000012B002A15D02DE970004FF001324FF080
:109E7000803350F8044BA4EB020525EA04051D408D
:109E800000D1F6E7A0F1040070BC10F8012B002A05
:089E9000FBD1A0EB01007047BB
:089E9800DD9202000000000051
:109EA000619B020000000000399C020000000000DD
:109EB0000000000020A0020000000000ECA502004D
:109EC00000000000DCA5020000000000CCA502009C
:109ED00000000000BCA5020000000000D4A60200A3
:109EE0000000000000000000000000000000000072
:089EF00000000000000000006A
:109EF80000000000000000000338FDD870474261F0
:109F08006420617267756D656E7420636F756E7419
:109F18000025730D0A092D20456C656D656E74204A
:109F280073697A653A092564202B202564206279B3
:109F3800746573206F6620646562756720696E6654
:109F48006F726D6174696F6E0D0A092D205573610A
:109F580067653A092575252520282575206F7574AC
:109F6800206F6620257520656C656D656E74732994
:109F78000D0A092D204D6178696D756D3A092575B1
:109F8800252520282575206F7574206F6620257576
:109F980020656C656D656E7473290D0A0D0A006283
:109FA800616C6C6F6300436F6D6D616E64732066E6
:109FB8006F722042414C4C4F43206D616E61676562
:109FC8006D656E7400737461747573005072696E98
:109FD8007420737461747573206F662062616C6C91
:109FE8006F6320696E7374616E6365732E00000081
:109FF8000000000000A00200CD9F0200D49F0200D4
:10A008000000000075790200000000000000000058
:10A018000000000000000000A79F0200AE9F0200A1
:10A02800F89F0200757902001B5B256443001B5BE7
:10A03800256444001B5B256441001B5B25644200CA
:10A048002563006E6F74207465726D696E61746546
:10A05800643A2025630A003A20636F6D6D616E646F
:10A06800206E6F7420666F756E64002D68002D2D4C
:10A0780068656C7000506C6561736520737065630A
:10A08800696679206120737562636F6D6D616E64B6
:10A098002E0A005461622066756E6374696F6E3AA9
:10A0A80020636F6D6D616E647320636F756E746588
:10A0B80072206F766572666C6F7765642E0A002071
:10A0C80020000A25732573000A2573004F707469F0
:10A0D8006F6E733A0A002020252D2A733A005368C0
:10A0E8006F7720636F6D6D616E642068656C702E8C
:10A0F80000202025732573257300537562636F6DE7
:10A108006D616E64733A0A0025733A2077726F6E38
:10A118006720706172616D6574657220636F756E1A
:10A12800740A0025733A257325730A0020756E6B2F
:10A138006E6F776E20706172616D657465723A201A
:10A14800004E6F20726573706F6E73652066726F54
:10A158006D20746865207465726D696E616C2C2061
:10A16800617373756D656420383078323420736399
:10A178007265656E2073697A650A005B2533645DD4
:10A188002025730A006F6E006F6666004563686F6E
:10A19800207374617475733A2025730A004C6F73C9
:10A1A80074206C6F67733A2025750A4D6178206CAE
:10A1B8006F67207175657565207574696C697A615A
:10A1C80074696F6E3A2025752525205B25752F2526
:10A1D800755D0A00726573697A6500436F6E736F07
:10A1E8006C652067657473207465726D696E616C47
:10A1F8002073637265656E2073697A65206F7220BB
:10A20800617373756D657320383020696E206361E2
:10A2180073652074686520726561646F7574206663
:10A2280061696C732E204974206D757374206265A2
:10A23800206578656375746564206166746572204D
:10A2480065616368207465726D696E616C207769F9
:10A25800647468206368616E676520746F20656E3A
:10A268007375726520636F727265637420746578A4
:10A278007420646973706C61792E00686973746FF7
:10A28800727900436F6D6D616E6420686973746FD5
:10A2980072792E00636C690055736566756C2C20A5
:10A2A8006E6F7420556E69782D6C696B6520434C10
:10A2B8004920636F6D6D616E64732E00636C656118
:10A2C8007200436C6561722073637265656E2E005F
:10A2D80064656661756C7400417373756D652038CB
:10A2E800302063686172732073637265656E2077CE
:10A2F8006964746820616E642073656E6420746894
:10A3080069732073657474696E6720746F2074684C
:10A3180065207465726D696E616C2E00636F6C6F79
:10A32800727300546F67676C6520636F6C6F72653A
:10A33800642073796E7461782E006563686F0054C9
:10A348006F67676C6520434C49206563686F2E0012
:10A35800737461747300434C492073746174697336
:10A36800746963732E007265736574005265736552
:10A378007420434C492073746174697374696373FE
:10A3880020666F7220746865204C6F67676572205D
:10A398006D6F64756C652E0073686F770047657420
:10A3A80020434C4920737461746973746963732022
:10A3B800666F7220746865204C6F67676572206DE0
:10A3C8006F64756C652E0044697361626C65204327
:10A3D8004C49206563686F2E204172726F77732035
:10A3E800616E6420627574746F6E733A20426163A3
:10A3F8006B73706163652C2044656C6574652C20F3
:10A40800456E642C20486F6D652C20496E7365720B
:10A418007420617265206E6F742068616E646C656B
:10A42800642E00456E61626C6520434C492065636B
:10A43800686F2E0044697361626C6520636F6C6F8E
:10A448007265642073796E7461782E00456E61625E
:10A458006C6520636F6C6F7265642073796E7461CC
:10A46800782E001B5B3F336C001B5B6D001B5B325F
:10A478004A001B5B48001B5B366E00202D20000045
:10A4880000000000000000000338FDD870472D6868
:10A498002C202D2D68656C70000000000000000065
:10A4A800ACA4020024A302002BA3020024A50200EE
:10A4B800E180020042A3020047A302005CA502005B
:10A4C8002983020058A302005EA30200ECA4020044
:10A4D80021810200000000000000000000000000D0
:10A4E8000000000000000000F4A402006EA30200B7
:10A4F80074A302000000000091830200A0A30200E0
:10A50800A5A3020000000000B983020000000000BB
:10A518000000000000000000000000000000000033
:10A528002CA5020090A102003CA40200000000003B
:10A53800A98202008DA1020054A4020000000000BC
:10A54800C9820200000000000000000000000000B6
:10A55800000000000000000064A5020090A10200B5
:10A56800CFA3020000000000E98202008DA10200D2
:10A578002BA4020000000000098302000000000074
:10A5880000000000000000000000000000000000C3
:10A598009CA50200D8A20200E0A202000000000070
:10A5A80065810200000000000000000000000000BB
:10A5B80000000000C4A20200CAA2020000000000BD
:10A5C800498002009CA20200A0A20200A4A40200EA
:10A5D8008980020083A202008BA202000000000012
:10A5E80039820200DCA10200E3A1020094A5020066
:10A5F800918102002C20003031323334353637381F
:10A608003941424344454600A09E0200A09E0200F4
:10A61800040000004F766572666C6F77004E6F20FD
:10A628006F766572666C6F770025730D0A092D20A9
:10A63800456C656D656E742073697A653A092564A1
:10A648000D0A092D2055736167653A092575252579
:10A6580020282575206F7574206F66202575206564
:10A668006C656D656E7473290D0A092D204D61782E
:10A67800696D756D3A092575252520282575206F82
:10A688007574206F6620257520656C656D656E7420
:10A6980073290D0A092D204D6F64653A0909257340
:10A6A8000D0A0D0A007175657565005072696E7442
:10A6B80020737461747573206F6620717565756594
:10A6C80020696E7374616E6365732E00ADA6020017
:10A6D800AE9F0200E4A602005D88020000000000B0
:10A6E800ECA60200CD9F0200B3A602000000000005
:10A6F8005D8802000000000000000000000000006B
:10A70800000000000000014D694761746F000000FF
:10A7180050340020000000000200000D0001000677
:10A728000100100201000000A09E0200A09E02008D
:10A7380008000000A09E0200B09E02000800000071
:10A74800A09E0200A09E020008000000989E020041
:10A75800A09E020008000000989E0200989E020039
:10A768000800000043000000504F53495800000003
:10A778002020202020202020206828282828202069
:10A7880020202020202020202020202020202020C1
:10A798004810101010101010101010101010101079
:10A7A8008484848484848484848410101010101019
:10A7B8001081818181818101010101010101010172
:10A7C8000101010101010101010101101010101026
:10A7D8001082828282828202020202020202020243
:10A7E80002020202020202020202021010101020EB
:10A7F80000070320041702010857104080000000DA
:10A808006CA7020070A8020084A9020053756E00AC
:10A818004D6F6E0054756500576564005468750087
:10A828004672690053617400000000004A616E00BE
:10A83800466562004D617200417072004D61790099
:10A848004A756E004A756C00417567005365700063
:10A858004F6374004E6F760044656300000000008B
:10A86800414D00504D000000A8A90200A4A9020013
:10A87800A4A90200A4A90200A4A90200A4A9020094
:10A88800A4A90200A4A90200A4A90200A4A9020084
:10A89800FFFFFFFFFFFFFFFFFFFFFFFFFFFF0000BE
:10A8A800E4A8020014A8020020A9020034A80200AB
:10A8B80068A80200C8A8020078A90200D4A802006B
:10A8C800256D2F25642F257900000000256120259E
:10A8D80062202565202554202559000053756E6493
:10A8E8006179004D6F6E64617900547565736461B8
:10A8F80079005765646E6573646179005468757290
:10A908007364617900467269646179005361747592
:10A9180072646179000000004A616E7561727900A5
:10A928004665627275617279004D617263680041B3
:10A938007072696C004D6179004A756E65004A75E0
:10A948006C79004175677573740053657074656D33
:10A95800626572004F63746F626572004E6F766550
:10A968006D62657200446563656D62657200000022
:10A9780025483A254D3A255300000000799C0200ED
:10A98800959C0200A19C0200AD9C0200C99C02009B
:10A99800D59C0200E19C0200EF9C02000000000030
:04A9A8002E0000007D
:10A9AC000090D00340060000773400201F00000008
:10A9BC000000000000000000FF00FFFF06009001F7
:10A9CC000000200308A8020008A8020008A8020042
:08A9DC0008A8020008A802000F
:0400000320007375F1
:00000001FF
