:020000022000DC
:1070000000000220757302005D7302005F730200CE
:1070100061730200637302006573020000000000E8
:107020000000000000000000000000006773020084
:1070300069730200000000006B7302006D730200B0
:10704000159E02006F730200B1A202006F7302006E
:107050006F7302006F73020035A102006F730200AC
:107060006F7302006F7302006F7302006F73020090
:107070006F7302006F7302006F7302006F73020080
:107080006F730200818202006F7302006F7302004F
:107090001D8302006F730200CDBE02006F730200F9
:1070A0006F7302006F7302006F7302006F73020050
:1070B0006F7302006F730200000000000000000008
:1070C0006F7302006F7302006F7302006F73020030
:1070D00029A302006F7302006F7302006F73020036
:1070E0006F730200000000000000000000000000BC
:1070F000000000006F730200000000006F730200C8
:10710000000000000000000000000000000000007F
:10711000000000000000000000000000000000006F
:10712000000000000000000000000000000000005F
:10713000000000000000000000000000000000004F
:10714000000000000000000000000000000000003F
:10715000000000000000000000000000000000002F
:10716000000000000000000000000000000000001F
:10717000000000000000000000000000000000000F
:1071800000000000000000000000000000000000FF
:1071900000000000000000000000000000000000EF
:1071A00000000000000000000000000000000000DF
:1071B00000000000000000000000000000000000CF
:1071C00000000000000000000000000000000000BF
:1071D00000000000000000000000000000000000AF
:1071E000000000000000000000000000000000009F
:1071F000000000000000000000000000000000008F
:10720000354936480A1A02D0072291438D4634493F
:1072100034480A1A06D00722914381F309880222D2
:1072200082F3148830483149314A00F044F831483B
:107230003149324A00F03FF831483249324A00F0D1
:107240003AF832483249334A00F035F83248334987
:10725000334A00F030F833483349344A00F02BF811
:1072600033483449344A00F026F83448344900227F
:1072700000F02CF833483449002200F027F8334856
:107280003349091A082902DB002202604160314AB1
:1072900090471F481F49884205D00268043003B454
:1072A000904703BCF7E700208646EC46002000210B
:1072B000294A9047FEE7884207D0521A05D0037842
:1072C00001300B700131013AF9D17047884202D088
:1072D00002700130FAE770470000022000E0012050
:1072E0000000022000000220F0DF020090320020A7
:1072F000E4320020D0730200D0730200B4C4020054
:10730000F0DF020090320020903200209CC5020085
:107310009CC502009CC502009CC502009CC50200E1
:107320009CC502009CC502009CC50200F0DF020063
:1073300044E00200E4320020E4320020E432002085
:107340006A3C00206C3C00206C3C00206C3C00201F
:107350006C5C00209D73020055B70200FEE7FEE75B
:10736000FEE7FEE7FEE7FEE7FEE7FEE7FEE7FEE7F5
:1073700000F002B8FFF7FCBF0F484FF00701884349
:1073800085460E4880470E48016841F4700101604F
:10739000BFF34F8FBFF36F8FFFF732BF09480A4922
:1073A0000A4A884207D0521A05D0037801300B7080
:1073B0000131013AF9D1704700000220819A0200A0
:1073C00088ED00E084C50200783200209032002071
:1073D000F0B595B01D46164608460C4602F019FB5E
:1073E0001A9B0D93CDE9086500252B46082205A9B7
:1073F00020460A958DF82C500C9502F026FB079B31
:107400000293069B03939DF814308DF8115003F0FE
:107410000302012A1DD1BDF81420059DC3F3C20348
:10742000C2F383168DF81030B20008230EA920464F
:1074300002F00BFBC5F3952508AB0093324602AB77
:107440000EA9284600F0D8FB204602F0E6FA15B057
:10745000F0BD022AF8D1BDF81650C3F3C203C5F33C
:1074600089158DF810300827082D2E4628BF0826CC
:107470003B4632460EA9204602F0E7FAAD1B08ABA8
:1074800002AA31460EA8374400F01AFC002DEBD1B9
:10749000DAE70000014B01221A7070472533002003
:1074A0007047000070B50F4D06460FCD88B06C4692
:1074B0000FC495E80F00002E84E80F000A4A0B481D
:1074C0004FF01F0308BF00226946009302F05AFCE8
:1074D00018B1074A432100F0F1FD064B1E7008B0B9
:1074E00070BD00BF0CC602009574020090320020EF
:1074F0009CC50200E432002007B5044B0093044A07
:107500004023FFF765FF03B05DF804FB157502002B
:10751000E532002038B50E480E4C0F4D0023237085
:107520000378EB5CD2B273B1043003F0E1FB18B125
:107530000A4A532100F0C2FD094B1A7812B1237890
:10754000002BFBD038BD0C3003F062F9EFE700BF31
:107550009032002025330020743A00209CC50200A0
:10756000E432002008B50848084A0378D35C3BB1F0
:10757000043003F02DFBBDE808400020FFF792BF68
:107580000C3003F0DDF8F6E790320020743A00206A
:107590000120FFF787BF000008B5FFF7F9FF044897
:1075A000042100F093FA034B01225A7108BD00BF79
:1075B00074C50200A4320020037813F0040216D030
:1075C00003F00303012B03D0022B09D001207047E5
:1075D0000A6800880232C0F3831002440A60F5E7AB
:1075E0000B684288023303EB92130B60EEE7104600
:1075F000704700002DE9F04FDFF81CA187B00F465F
:1076000000230446861C0DF1070015468DF807304F
:1076100001F07EF8DAF804203A60DAF8083003F571
:1076200080739B1A0AF21C470AF583690AF2144810
:10763000B3421AD30020002D69D004F00F039B0140
:1076400043F0050363F30F00DAF80430DAB20332D3
:1076500033444AF822009DF80700CAF8043001F0CC
:107660007BF8012007B0BDE8F08F0121384601F01A
:10767000ACF8484601F0C1F8404601F0BEF8DAF82F
:1076800008000290C0B203300AEB800002A9FFF7A5
:1076900093FF029B30BBDAB20AEB8202D1680391FE
:1076A0009A1C0133DBB20AEB83030292D3F80CB0CD
:1076B00001F00303012B22D0022B15D08346404654
:1076C00001F09EF810B1029BCAF8083059463846BE
:1076D00001F07BF8DAF80830DAF8042003F580735B
:1076E0009B1AA5E7D8B2CEE7BDF80E30C3F38913D5
:1076F00003334FEA1B4B02EB93030293DFE7BDF822
:107700000C30C3F383134FEA1B4B1344F5E7A40576
:1077100044F0060098E700BFF8330020064B074806
:1077200010B500221A7002F02DF9044610B9044871
:1077300002F0DCF8204610BDF8330020CCC4020073
:107740006CC6020030B50A4C71B10A4A0A49121BD4
:10775000D20800239A4201D1002030BD31F82350D5
:10776000854202D00133F5E7034654F83300F4E7CD
:1077700014C5020074C5020090320020094B013983
:1077800003EBC000032909D8DFE801F00A02040670
:107790000420704700797047407970470020704797
:1077A0000220704714C5020070470000034BD3E964
:1077B0000130C31A58425841704700BFF8330020C7
:1077C0002DE9F04186B0FFF7F1FF0546002840F0B3
:1077D000ED80774CC4F81804BFF34F8FA368029371
:1077E000DBB2033304EB830002A9FFF7E5FE029B43
:1077F00018B1D4F81824002A5AD0DAB2991C0133EF
:1078000004EB8202DBB204EB8303D268DB680493EF
:1078100002F00303022B0392029154D1BDF80E3003
:107820006448C3F38917502F3E4628BF502606F1FF
:10783000080166F38F13C1F30901ADF80E3002F0B1
:10784000B9F80546002800F09C8002F0E2F8002319
:10785000082203A9284602F0EEF80299CB43DBB2D6
:107860000133C9B20331B6EB830F4FEA830204EB55
:10787000810125D95FFA82F80823A6EB080628467D
:1078800002F0D9F8F6B208F108034B4903F0FC0303
:107890003246284602F0CFF8029B033703EB9707E6
:1078A0000297D4F81834002B43D1D4F8106453E075
:1078B00062689A4294D8A260284606B0BDE8F0817A
:1078C00008233246E5E7012B5BD1BDF80C3039487F
:1078D000C3F38311062928BF062161F389130231FE
:1078E00001F00F018900ADF80C3002F063F8054695
:1078F000002846D002F08DF80023082203A928466C
:1079000002F099F80026BDF80C20C2F38312B300F0
:10791000964203F10803C4D202994A1CC9B203314A
:10792000029204EB81010422284602F084F8013619
:10793000E9E7284602F071F8FFF738FF80F0010010
:10794000C5B2B9E7F3685B7923B1336829461B6890
:1079500030469847F3681E68002EF3D1284602F09F
:107960005CF80DF107008DF8076000F0D1FED4F847
:1079700018340BB9029BA3609DF8070000F0ECFEE1
:10798000DAE7D4F8104454B90C4B0D480D49C01A2D
:10799000C008000440F0020000F05EF8CCE7236865
:1079A00020469B689847E3681C68ECE7002583E75E
:1079B000F8330020CCC402000434002014C50200B7
:1079C00044C5020049C602002DE9F34704460E46AD
:1079D000924601A9012218469946FFF70BFE1C4F5B
:1079E00010B3019D4FF00008AA1CC84508EB020126
:1079F00025D11848002100F0C5FE80F310000004D6
:107A000040EA1440E4006B1C04F03804DBB2EDB231
:107A100044F0010407EB8303033544EA881444EA85
:107A20008624D86047F825403B781BB1FFF7C8FE95
:107A30000028FBD1FFF7B8FE02B0BDE8F087C9B25D
:107A400007EB81015AF82830CB6008F10108CCE738
:107A5000F83300201438002000231A46FFF7B4BF83
:107A600007B50123019201AAFFF7AEFF03B05DF84D
:107A700004FB07B5CDE9002302236A46FFF7A4FF04
:107A800003B05DF804FB7FB5CDE90123089B0393A8
:107A9000099B04930A9B059301AA0523FFF794FF12
:107AA00007B05DF804FB7FB5CDE90023089B029386
:107AB000099B03930A9B04930B9B05936A46062339
:107AC000FFF782FF07B05DF804FB000030B50F4CF4
:107AD000D4F8102403460020114631B9D968087142
:107AE0004AB9C4F810340A6030BDC9680D798542BE
:107AF00006D00968F1E7D26814680C601360F3E7F8
:107B000001300A28E8D14FF0FF30EDE7F8330020CC
:107B100038B5084B0125D3F810441D7004B938BDA1
:107B2000E3685D71236820465B689847E3681C68DA
:107B3000F4E700BFF833002030B5C38885B00446B1
:107B40000D4633B1144A00921449154A284601F0F3
:107B500004FC217A05291DD0637A4BB1A088FFF778
:107B60000DFE104B104953F82020284601F0F5FB7C
:107B7000227A0E4BA08853F8222003920021FFF7AF
:107B8000E1FD039A0A490346284605B0BDE83040A6
:107B900001F0E3BB05B030BD98C6020080C602000C
:107BA00078C6020008C70200CBC902002CC7020039
:107BB0009DC6020007B503460846197A052911D06B
:107BC0005B7A2BB1094A0A49019001F0C6FB019882
:107BD0000849019001F0C1FB019803B05DF804EB86
:107BE00001F0B0BB002AF8D0F2E700BF98C602004F
:107BF000CBC90200A4C802002DE9F04385B01F469E
:107C00000C9D002395F80C902B7306460C4690466D
:107C100029463846FFF790FFB8F1060F09D8DFE88C
:107C200008F00412181F283340003146284601F09E
:107C300094FB002229463846FFF7BCFF85F80C90DC
:107C400005B0BDE8F08322683146284601F085FB87
:107C5000EFE7D4E900233146284601F07EFBE8E750
:107C6000A36800933146D4E90023284601F075FB50
:107C7000DFE7E3680193A36800933146D4E900236A
:107C8000284601F06AFBD4E723690293E368019375
:107C9000A36800933146D4E90023284601F05DFB38
:107CA000C7E76369039323690293E3680193A368B9
:107CB00000933146D4E90023284601F04EFBB8E793
:107CC00008292DE9F74F80460E4617461C463DD839
:107CD00000251B7B2573214610460193FFF72CFFDF
:107CE000DFF88CA0DFF88CB0AE4232D918F805204E
:107CF0005946204601F031FB0135082DF4D11B49CE
:107D0000DFF874A0DFF874B0204601F026FB4FF0D6
:107D100000094E4524D918F809507E2D1ED8284652
:107D200004F00FFB002814BF2A462E225946204695
:107D300001F013FB09F10109B9F1080FE9D10122A2
:107D400021463846FFF736FF019B237303B0BDE899
:107D5000F08F5146204601F000FBCDE72E22E5E7EB
:107D60005146204601F0F9FAE4E700BFB1C602002F
:107D7000ADC60200A7C60200AFC60200B3C602002D
:107D8000C30710B507D4F023054A4008145C23400C
:107D90001943115410BD0901C9B20F23F4E700BF04
:107DA000E038002030B5094B1C78094B19680023D6
:107DB0009C4202DC0022104630BD11F8335085424F
:107DC00001EBC302F7D00133F2E700BFB038002067
:107DD0000039002013B504460191FFF7E3FF38B1E5
:107DE00043682BB10199204602B0BDE81040184706
:107DF00002B010BD034B044819680022490800F086
:107E00002BBC00BFB4380020B838002010B5C0B279
:107E1000FFF7C8FF0446007802F07EF963785A1E27
:107E200053425341834208D1044BD3E90023134307
:107E300003D1BDE81040FFF7DDBF10BDD8380020EA
:107E400037B54308374AD35CC2074CBF1B0903F060
:107E50000F0304460D46042B25D8DFE803F0032664
:107E60002F3C4000F9B10121FFF78AFF00230DF1FB
:107E700007008DF8073000F04BFC0120A4F120032F
:107E8000C4F12001284A20FA01F100FA03F30B4360
:107E9000A040D2E9004120430B43C2E900039DF812
:107EA000070000F059FC03B030BD002918BF0221C3
:107EB000204603B0BDE83040FFF762BF49B103215F
:107EC000FFF75EFF0121204603B0BDE83040FFF719
:107ED00081BF0121ECE70029E5D10421E8E709B1E0
:107EE0000321E5E7FFF74CFF29462046FFF772FF25
:107EF0000DF107008DF8075000F00AFC0120A4F1F5
:107F00002003C4F12001084A20FA01F100FA03F32A
:107F10000B43A040D2E9004124EA000021EA030318
:107F2000BBE700BFE0380020D83800202DE9F04141
:107F3000124E134F00243378A34208DC114BD3E9CF
:107F40000023134318D0BDE8F041FFF753BF3D684D
:107F500005EBC40815F8340002F0DEF898F801309B
:107F60005A1E53425341181A4142414115F83400F8
:107F7000FFF766FF0134DEE7BDE8F081B03800208E
:107F800000390020D8380020092AF7B505460C46EC
:107F900016463ED901F0E8FFE8B11F4B1F481D60AF
:107FA0001F4B204F1C70204B002120221E6004F02C
:107FB000F6F91E4B00200021C3E90001013CE4B2A8
:107FC0000326FF2C0DD11A4A1A48002103B0BDE840
:107FD000F04000F02FBB01F081FF0028DDD003B09E
:107FE000F0BD9DF8063015F834008DF8046005EBFF
:107FF000C40223F007038DF8063001A993788DF8A9
:1080000005303A4601F0BAFF013CE4B20028D8D06E
:10801000E5E70720E3E700BF00390020E038002053
:10802000B03800200D7E0200B4380020D83800207F
:108030002D7F02004CC7020070B5084D084E002489
:108040002B789C4201D3002070BD3368012113F8C6
:10805000340002F013F80134F2E700BFB03800201A
:108060000039002082B001238DF807309DF80730D9
:10807000114B1860596044F2010188429A6012D095
:1080800044F20201884206D1DA60DA6812689A6125
:10809000DA685268DA6172B69DF80730002BFBD1BE
:1080A00062B602B070471A611A6992685A611A6919
:1080B00012689A611A69ECE70439002000B583B0B0
:1080C00002900091019244F2010071466A4600F06C
:1080D00003F803B000BD0000F0B5064687B00F46B8
:1080E000154672B6FFF714FDFFF76AFB0028FBD1B7
:1080F000244B254CE41AE40844F2010324049E4274
:1081000044F001042BD00BD8012E14D041F201030E
:108110009E4222D01D493A462046FFF7A1FC0EE0C0
:1081200044F202039E42F5D1D5E9003218492046B7
:10813000FFF79FFC03E017492046FFF78DFC164B25
:10814000D3F8F030DB0700D500BE2A46394630466A
:1081500007B0BDE8F040FFF785BF1049ECE7AA681B
:108160000592104601F0B8FB2968029701916968F1
:10817000009103460A49059A2046FFF784FC094905
:10818000DAE700BF14C5020044C50200E3C70200DD
:108190008FC7020050C7020000ED00E06DC702006B
:1081A000A9C70200CFC70200094B5A78997801325B
:1081B000D2B2914208BF0022197891421FBF0270CB
:1081C0005878182202FB003014BF0430002070479A
:1081D0002439002073B5054600240DF107000E4632
:1081E0008DF8074000F094FA0DF10600FFF7DCFF70
:1081F00090B10670094B9DF8062045605A709DF8B5
:10820000070000F0A9FA24B9054B4FF48012C3F817
:108210000021204602B070BD0424F0E7243900207C
:1082200000E100E0024B4FF43C6043F001031847CB
:1082300000C8020038B50E4B4FF40032C3F880205E
:10824000BFF34F8FBFF36F8F0A4C4FF4803301257C
:10825000C4F84833C4F808336560FFF7E3FF064B02
:10826000A56000241C60FFF7DDFF044B1C7038BDC7
:1082700000E100E000100140403A0020313A0020C7
:10828000F8B51F4B1F491B680025C1F84051C1F8C4
:108290004451C1F84851C1F84C51C1F80051C1F8DE
:1082A00004514BB3D1F8044517490968641A24F006
:1082B0007F442F461A68A24209D8A41A15441A7C92
:1082C000DE691AB1D3E905201F749047AEB90F4A91
:1082D0000F4B11781B788B4205D10133DBB2022B97
:1082E00008BF0023137012780A4B43F822500A4B40
:1082F0004FF48012C3F80021F8BD3346DAE700BF1F
:10830000443A002000100140403A00203D3A00204D
:108310003C3A0020343A002000E100E02DE9F04F23
:10832000A14AA24913780978A14D994285B03CD061
:108330000133DBB2022B08BF002313709D49127872
:108340009D4B0F6853F822003B1823F07F43002217
:108350000B602B6816461446944613B942B12B6045
:1083600006E0196881420ED902B12B60091A196022
:1083700001272B68DFF848A201934FF00008BEB92F
:10838000DFF844B260E0401A0C44D968D3F81CE02E
:10839000C3F800C031B13A1922F07F42C3E901218C
:1083A000DE611E4673460122D7E700263746E0E726
:1083B0003446F6697F4B60681B68DFF810C2A1681D
:1083C000C21A22F07F42624500F2A6800A4422606F
:1083D000012222742A680023C4E90133E361002AE0
:1083E00040F0A3802C60CAE79BF802105A1CD2B25E
:1083F00091428BF8002004BF00228BF80020182245
:1084000002FB03B32A6819799C68022975D00329F5
:108410007FD0012918D1207CB0B9D3E90312A26022
:108420005A69E2609A69654BA2611A78002A18BFFE
:1084300001466160BEE78C4200F094808946C969BC
:108440000029F8D1002323749BF800309BF8012009
:108450009A42C9D12B68B8F1000F04D1019A9A420F
:1084600001D1002F43D0002B79D0D3F800A0544D78
:10847000504BD5F804751C68DFF854813E1B98F802
:10848000003026F07F4603369BB94FF48033C5F8A1
:108490004433C5F804334B4B4FF40032C3F880210A
:1084A0001A604FF00109C5F80090FFF7BBFE88F88D
:1084B0000090B2452CBF5444A41924F07F44C5F861
:1084C0004045D5F80435DB1B23F07F43E41B033321
:1084D00024F07F44A3420AD9D5F80435C5F84035C5
:1084E000FFF7A0FE374B4FF40032C3F80021334BA7
:1084F00000221A7005B0BDE8F08F114691469FE743
:108500001174D2690123002AFAD1002B9CD02A6071
:108510009AE700231946F6E71B1A23F07F438B42A4
:1085200034BFCB1A0023236052E7216813689942B5
:1085300013D85B1A1360E26154E7091AD8691A4626
:1085400038B1034618688842F7D3401A18601846B5
:1085500013462160E061DC6111E71346F2E7FFF7A3
:1085600069FEC4E74C4511D1D3692B6073B9DFF8BC
:1085700044E00120CDE90212CAF80800CEF800302C
:108580000E4B1870FFF74EFEDDE902120B68C96949
:10859000C9F81C1011B1086803440B602B689342A2
:1085A00018BF4FF001084DE73C3A00203D3A00204B
:1085B000443A0020403A0020343A0020303A00206B
:1085C0000010014000E100E024390020FEFF7F00A0
:1085D000313A002008B5FFF72DFE104B00200B228A
:1085E00018809A700E4B18600E4B18700E4B187056
:1085F0000E4B4FF48012E021C3F8802183F814134E
:108600001A6002F18042A2F56F22C2F8080583F8D1
:108610001113074BD2F804251A6008BD2439002035
:10862000443A00203C3A00203D3A002000E100E0BE
:10863000403A0020074B9B784BB132B128B1036818
:10864000187C20B959745A61704707207047082078
:10865000704700BF243900202DE9F743DFF88C80F4
:1086600098F8023005460E461746BBB3B0B31C4B14
:108670004A1F9A4230D8436983B3437C0024012BBC
:108680000DF107000CBF8946A1468DF8074000F0A8
:108690003FF80DF10600FFF787FDD8B10123037005
:1086A000104B4560D3F80435C0E90497C0E90236A1
:1086B0009DF8063088F801309DF8070000F04CF86E
:1086C00024B9094B4FF48012C3F80021204603B0AF
:1086D000BDE8F0830424EFE70724F7E70824F5E773
:1086E000FAFFFF000010014000E100E02439002003
:1086F000064A92783AB130B1426922B1002202743E
:108700000221FFF767BD0820704700BF2439002011
:1087100070B5EFF3108672B60C4A946801239CB9C9
:1087200093600B4B0B4DD3F8801029401160C3F8B8
:108730008050D3F8841051604FF0FF32C3F884208A
:10874000047006B962B670BD0370FAE7483A0020BB
:1087500000E100E0FC06FFBD084B9A6810B55AB175
:1087600050B9EFF3108172B6054A1C6814605C685A
:108770005460986001B962B610BD00BF483A00204D
:1087800000E100E010B5034653E8000F0A4643E855
:10879000002494F0000FF7D110BD10B5034653E844
:1087A000002F42EA010043E8000494F0000FF6D1E4
:1087B00010BD10B5034653E8000F00EA010243E87C
:1087C000002494F0000FF6D110BD10B5034653E815
:1087D000002F02EB010043E8000494F0000FF6D1F3
:1087E00010BD10B5034653E8002FA2EB010043E88B
:1087F000000494F0000FF6D110BD0121FFF7CDBFAA
:108800000021FFF7D6BF00002DE9F0478368D3F8B9
:108810004831C3F340059B0788B0074606D50022C0
:10882000114608B0BDE8F04700F0B8BA012906D9F2
:108830001E4A022108B0BDE8F04700F083BA1C4C84
:108840001C4EDFF874A04FF06408A946361B1823AD
:10885000B6FBF3F6AE4204F1180402D108B0BDE84D
:10886000F08754F8180C54E90523017900689A1A26
:108870001B1ADBB2039308FB03F3B3FBF2F3CDE95E
:10888000019334F8043C0093CDE9061254F8083CF7
:1088900011FB08F13846B1FBF2F1CDE90421524653
:1088A000082100F04FFA0135D4E700BF06C80200E6
:1088B000CCC40200E4C4020019C8020010B590B193
:1088C000D0E9012301689B1ADBB20A60013BDBB2ED
:1088D000FF2B026802D10020107110BD11684C1CE2
:1088E00014600B70F2E70E20F7E737B50546002459
:1088F0000DF107008DF80740FFF70AFF2A686B6843
:10890000116899420ED9481E106011F8013CEC68BC
:10891000A98A01FB0344AB6811791B1ADBB29942A7
:1089200038BF13719DF80700FFF716FF204603B00C
:1089300030BD37B5054600230DF107000C468DF814
:108940000730FFF7E5FE2A681368591C1160E968D3
:10895000641AA98AB4FBF1F41C709DF80700FFF7B4
:10896000FBFE03B030BD00002DE9F843089E1D4614
:108970000C46F1B9194E1A49891BB2EBD10F4FEAD7
:10898000D10905D2174F043607EB8207A14502D162
:1089900000232B6009E056F834803868D8F80010BE
:1089A00003F030FD18B9C5F80080BDE8F883013444
:1089B000ECE70028ECD00178436839B13146104625
:1089C00098473368002BE3D02E60EEE7110103EBEC
:1089D00002125B58002BDBD02A60E6E7E4C40200F9
:1089E00014C502007832002008B103F032BD704790
:1089F00007B58368DA7E8A421ED01B228DF80020DC
:108A00005B228DF8012031228DF802203B228DF867
:108A1000032033228DF8042001F12F028DF8052068
:108A20006D22D9768DF8062000228DF807200449A2
:108A300000696A4600F091FC03B05DF804FB00BFDA
:108A4000CBC902000A4609B1FFF7D2BF8168CA76D6
:108A50000069024A024900F080BC00BF68CD0200F4
:108A6000CBC9020007B583681A7F8A4218D01B223F
:108A70008DF800205B228DF8012034228DF8022031
:108A800001F12F028DF803206D2219778DF8042053
:108A900000228DF80520044900696A4600F05DFC5B
:108AA00003B05DF804FB00BFCBC902002DE9F34120
:108AB00005460F461446002614B902B0BDE8F08101
:108AC000686803682246D3F80C80B91901ABC04727
:108AD000019B1E44E41A002BEED1AB681A78032ADE
:108AE000EAD0D3F848219206FBD5B3F848216FF3BA
:108AF0004512A3F84821DFE70A46014900F02DBCE2
:108B000030C9020011B10069FFF7F6BF70470000DD
:108B1000014900F022BC00BFA5C802000A4619B1F5
:108B20000249006900F019BC704700BF36C9020055
:108B30000A4619B10249006900F00FBC704700BF36
:108B40003CC902002DE9F04F044685B00E46904620
:108B50000025705D03F0F0FB20BB5FFA88FA304619
:108B6000FFF742FFA3685B7E401BA3EB080B584551
:108B700006EB050918D94A46002712F8011B039392
:108B800008460292019103F0D7FBDDE9022318B1F8
:108B900001990A2931D0BB4608EB07018B422BD93A
:108BA0000137EAE70135D4E74B460027B84217D032
:108BB00013F8012B0A2A05EB070A1BD1206900F0E4
:108BC000C1FB49463A462046FFF770FF2069FFF790
:108BD0009FFF5FFA88F120460AF10105FFF792FF37
:108BE0002069711900F0B9FB206905B0BDE8F04FAC
:108BF000FFF78EBF0137D9E75F46206900F0A2FB7F
:108C00003A4649462046FFF751FF3D44705D03F068
:108C100093FB38B92069FFF77BFF51462046FFF7E9
:108C200071FF9CE70135F1E72DE9F34105468068C6
:108C3000424F002480222146A0308DF8034003F0EB
:108C4000AEFB3F49286900F088FB286900F07AFBF9
:108C50004FF47A7647F00107686803680122D3F879
:108C600010800DF1030101ABC047019B5BB94FF6CA
:108C7000C010B847019B002BEED1013EB6B2002ECA
:108C8000EAD10D2035E09DF80330AA681B2B48D0AF
:108C900092F8A0101B29EDD1522B42D1144400238D
:108CA00084F8A03092F8A1105B291FD102F1A2062E
:108CB00002211D4616F8010B4C1C3B28E1B264B2A0
:108CC0001AD1002C20DB01F1A0041444002314F875
:108CD000010BD8B9FA2B28BFFA23FA2D13752B46AE
:108CE00028BFFA23937582F8A00002E082F8A03032
:108CF0000B2002B0BDE8F08105EB850300EB4303D8
:108D0000303B80299DB2D5D10C20F2E703EB8303E1
:108D100000EB43004E1C303883B23006F1B2F3D47E
:108D2000D5E711190134E4B2092C81F8A030A1D99A
:108D3000002382F8A0300420DBE700BF80CD0200D2
:108D400075CD02000CB473B506AB044653F8046B42
:108D500001938368D3F848516D0719D5DD7E8D42A4
:108D600016D0B3F81B50FFF76DFE206901AA3146FB
:108D700000F06AFBE9B22046FFF764FE290A02D040
:108D80002046FFF76FFE02B0BDE8704002B07047AA
:108D9000206901AA314600F057FBF4E72DE9F04FB6
:108DA0008BB0836817466C4A009204466B4A5B6836
:108DB0000D460821FFF7C6FFA6687068FFF714FE8E
:108DC000B168033082B211B12046FFF7BBFE644A9E
:108DD00000212046FFF7B6FF002F3DD0002D3BD0ED
:108DE0004FF00C0AA9460AFB075A0826D9F80400D6
:108DF000FFF7FAFD8046D9F80000FFF7F5FD404483
:108E0000B04209F10C0988BF86B2CA45EED106F11D
:108E10000408544B544A00931FFA88F806F10709D6
:108E20000821204643461FFA89F9FFF78BFF4F4977
:108E30004A462046FFF786FE2DB1DFF82CB14FF0F1
:108E4000000ABA450AD1A368D3F80C80B8F1000F24
:108E50003ED10BB0BDE8F08F0826D8E7D5E9002356
:108E600073B32AB30192424A00920821414A204634
:108E7000FFF768FF6868FFF7B7FD03902868FFF702
:108E8000B3FD0399B31C591A091AC9B22046FFF75A
:108E900039FE394920693A2200F05FFAA96899B190
:108EA0004A462046FFF74EFE0AF1010A0C35C8E794
:108EB000009343465A4608212046FFF743FFEDE75B
:108EC000002AEBD00092F4E72069FFF721FEEBE7E0
:108ED00000220592174606AE009605AB01214046DA
:108EE00002F10109FFF740FD059D3DB12868FFF73C
:108EF0007BFDB84200D987B24A46EDE7B9F1010FD0
:108F0000A7D01E4ADFF860A029462046FFF71AFFC7
:108F10002A46BD1CADB205AB00960121404602F1C8
:108F20000109FFF721FD059B002B92D01B680093E0
:108F300008212B4652462046FFF704FF059B59683F
:108F400031B17A1D92B22046FFF7FCFD4A46E2E7B6
:108F50002069FFF7DDFDF9E77ACD0200C5C90200FF
:108F6000CEC9020086CD0200D8C90200E0C90200C5
:108F7000ECCE0200F3C90200B3C60200FCC9020035
:108F800000221146FFF70ABF022910B5044608D196
:108F90008368D3F848319B0703D5BDE81040FFF73D
:108FA000EFBF2069054A064900F0D7F92069054A54
:108FB0000349BDE8104000F0D0B900BF71CD0200F8
:108FC000CBC902006CCD0200012906D0022906D1CE
:108FD0008368D3F848319B0701D5FFF7D1BF024A18
:108FE0000221FFF7AFBE00BF7AC9020038B583681F
:108FF000D3F84821C2F3400592070C4606D500225B
:109000001146FFF7CBFE2C46204638BD0029FBD089
:109010005B68024A0221FFF795FEF5E70ACA0200E3
:10902000012937B50546144604D103B0BDE83040E8
:10903000FFF7A6BF023918BF0121FFF7D7FF48B9D4
:1090400063680193044B0093044A23680221284675
:10905000FFF778FE03B030BD2ECA020025CA020019
:10906000012907B504D103B05DF804EBFFF788BF11
:1090700002290AD153680193084B00931368084AE8
:10908000FFF760FE03B05DF804FB8CBF01210021F7
:1090900003B05DF804EBFFF7A9BF00BF2ECA0200C2
:1090A00025CA0200013910B518BF01210446FFF797
:1090B0009DFF40B9044A0549206900F04EF9A368B4
:1090C00045F218021A8310BD62CD0200CBC902001E
:1090D0000129F7B50446154633D18568FFF7A4FD8D
:1090E00018BBA36820691F7D9E7DFA21FFF704FD50
:1090F00020691D49FA2200F030F92046FFF794FD5F
:1091000098B9A368197D6976A368C91B9B7D2B76E6
:109110002046C9B2FFF70CFD297E891BC9B2204643
:1091200003B0BDE8F040FFF7F9BCA36845F21802B0
:109130001A830E4A0421204603B0BDE8F040FFF731
:1091400001BE022994BF00210121FFF74FFF48B95A
:109150006B680193064B00932B68064A0221204658
:10916000FFF7F0FD03B0F0BD42C9020043CA0200A0
:109170002ECA020025CA02002DE9F041013986B04D
:1091800018BF01210546FFF731FF40BBAB68DFF890
:109190005480D3F840610446EEB1082C1BD0304611
:1091A0000023092203A900F050FC9DF81420A968AF
:1091B000304609230132A03100F047FCAB68049E21
:1091C000A0330093671C2346424600212846FFF740
:1091D000B9FD3C46E0E7AB68002283F8A02006B06A
:1091E000BDE8F0817DCA0200013910B518BF012128
:1091F0000446FFF7FBFE30B9A368B3F8482160F3DB
:109200008202A3F8482110BD013910B518BF012111
:109210000446FFF7EBFE30B9A268B2F8483143F0DC
:109220000403A2F8483110BD013910B518BF01215F
:109230000446FFF7DBFE30B9A368B3F8482160F3BA
:10924000C302A3F8482110BD013910B518BF012190
:109250000446FFF7CBFE30B9A268B2F8483143F0BC
:109260000803A2F8483110BD022973B50D4694BF1A
:109270000021012104461646FFF7B8FE014658B901
:10928000022D0BD1736801930C4B00930C4A336889
:1092900029462046FFF756FD02B070BDA368094A73
:1092A000D3F8483113F0080F074B18BF1346074A8D
:1092B000204602B0BDE87040FFF744BD2ECA020050
:1092C00025CA020048C7020087CA02008BCA0200F2
:1092D000013910B518BF01210446FFF787FE48B9D0
:1092E000A368C3F83801E3685B68BDE810401868FC
:1092F00000F0B9BA10BD00007FB5013918BF0121D7
:109300000446FFF773FE0546B8B9E3685B681E685C
:10931000304600F0A5FAB268A168C3B2CDE90132C7
:1093200064204343B3FBF2F3DBB20093D1F838314E
:10933000034A29462046FFF705FD04B070BD00BF73
:109340009CCA0200826810B504462AB143690168CC
:10935000006998470023A36010BD0EB403B50399BC
:1093600021B104AB01AA019300F06EF802B05DF8E0
:1093700004EB03B07047826830B40468551C856004
:10938000A154D0E901329A4202D330BCFFF7DABFD0
:1093900030BC70472DE9F84F9846DDE90A43154681
:1093A00082460F460A464FF00109AA420FD2C14534
:1093B00038BFC14613F0010B01D16CB9002401265E
:1093C000B8F1010F1BD908F1FF386E43F8E709F136
:1093D0000109B2FBF5F2E8E79B070ED5B8F1000FE3
:1093E0000CBF30262026A145E9D2013C314650462B
:1093F000FFF7C1FF002CF6D1E0E72026F3E7B7FB2B
:10940000F6F39D42E1D9DFF83C80B7FBF6F3504616
:1094100018F8031006FB1377FFF7ADFF3346AB4296
:10942000B6FBF5F6F1D2BBF1000F02D00CB1A145AD
:1094300001D3BDE8F88F20215046013CFFF79BFF88
:10944000F4E700BFEFCE02002DE9F74F05461746BF
:109450008846002900F03E8118F8011B49B92B7B92
:10946000002B00F03781284603B0BDE8F04FFFF72E
:1094700069BF252940F0B780002698F800302D2BD1
:10948000424608F1010823D0302B24D02B2B25D0C5
:1094900000242A2B02F1010123D13B681A1D1B680D
:1094A0003A601C440A4613782E2B26D101324FF025
:1094B000000A104610F8011BA1F1300CBCF1090F95
:1094C0001DD80A2303FB0A13A3F1300A0246F0E772
:1094D00046F00106D1E746F00206CEE746F0040664
:1094E000CBE711F8013CA3F130000928DBD80A22B0
:1094F00002FB0434303C0A46CBE74FF0000A12F876
:10950000011B01F0FB0068289046F8D0782909D8A3
:109510006F290CD8632962D022D8252963D0582915
:1095200000F0888098F80030002B95D197E77039CB
:109530000829F7D801A353F821F000BFAF96020025
:10954000259502002595020045960200259502000A
:10955000239602002595020025950200359602000B
:10956000642901D06929DDD13A68D2F80090111D33
:1095700089EAE9723960A2EBE9724FF0010B092A1E
:1095800035DCD34538BFD3462CB1B9F1000F01DB30
:10959000720700D5013CB30702D5BAF1000F03D022
:1095A000F00701D44CBB0024B9F1000F2DDAC9F14A
:1095B00000092D212846FFF7DEFE06F00302022AED
:1095C00004D1BAF1000F01D11CBB0024CDE9004643
:1095D00053460A2249462846FFF7DCFEA2E73B68CD
:1095E0001A1D19783A602846FFF7C5FE9AE70A2344
:1095F0000BF1010BB2FBF3F2C1E7A345D4D220215A
:109600002846013CFFF7B7FECCE77107D5D52B21E3
:10961000D0E7A345DAD230212846013CFFF7ABFE64
:10962000D2E73968CDE900460A1D3A6053460A225E
:109630000968D0E739680A1D3A60CDE9004653460B
:109640001022F5E73B681A1D3A6016F00106D3F8C0
:10965000009024D1B9F1000F03D0484602F0F9FE82
:109660000646B4421DD809F1FF3919F8011F002937
:109670003FF458AF2846FFF77EFEF6E7284601364E
:10968000FFF779FE19F806100029F7D1A642BFF4BA
:1096900049AF20212846013CFFF76DFEF6E7002682
:1096A000F0E720212846013CFFF765FED9E73B683B
:1096B0001A1D3A60302128461C68FFF75CFE7821AD
:1096C0002846FFF758FE00220823CDE90032214644
:1096D000102280E703B0BDE8F08F00BF41DF704784
:1096E000064B10B500241C70054B1C60BFF35F8F48
:1096F0000449054800F0BBF8204610BD5C3A002044
:10970000603A002008CF0200543A002007B5002339
:109710000DF107008DF80730FEF7FAFFF1EE103A71
:1097200023F09F03E1EE103ABFF35F8F0A4B402214
:10973000C3F884219DF80700FFF70EF802F0ACFB98
:1097400020B103B05DF804EBFFF7C8BF20BF40BFF6
:1097500020BF03B05DF804FB00E100E0026813687D
:109760005268934291BFD01A80680130801888BF38
:10977000C01A704713B5002304460DF107008DF899
:109780000730FEF7C5FF2046FFF7E8FF04469DF8C7
:109790000700FEF7E1FF204602B010BD2DE9F04FB3
:1097A0008368D3F84831C3F340059B078BB0064666
:1097B00006D5002211460BB0BDE8F04FFFF7EEBA18
:1097C000012906D9204A02210BB0BDE8F04FFFF76E
:1097D000B9BA1E4C1E4BDFF88090DFF880A01B1B2F
:1097E0001822B3FBF2F8A84502D10BB0BDE8F08F08
:1097F000E36809932368A768D3F808B02046FFF709
:10980000B9FF94F810E0134A642303FB00F1BEF1A2
:10981000000F18BF4A4603FB0BF3B3FBF7F3CDE988
:10982000043BB1FBF7F1099B0191CDE90672CDE94B
:10983000020700935246636908213046FFF782FA17
:1098400001351834CFE700BF06C80200CCC40200BF
:10985000CCC4020014CF02001DCF020029CF0200A9
:10986000036898687047036800229A6070470B6825
:109870004A684360934208BF0023016008BF436009
:109880007047436843B10268916852680B44934241
:10989000436004BF002343607047000010B50D49CA
:1098A000A1F59472914201D800200FE08C1AE30FC9
:1098B00003EBE4035B1002EBC30452F83330834242
:1098C00005D802D204F10802ECE7606810BD214619
:1098D000E8E700BFFCD4020008B5FFF7DFFF024B4A
:1098E000002808BF184608BDBED3020083680022C6
:1098F0005A60C3E904229A60DA601A6070472DE961
:10990000F84FB0F806A04579D2F800B09DF828903D
:109910000AFB05F5043D88460BEB0301A94203F160
:10992000040488BFA5EB030BB4FBFAF607460AFB59
:109930001644C2F800B04EB9AAEB04055D4528BF35
:109940005D46BBF1000F04D1BDE8F88F3F68013ED2
:10995000F1E7043408EB06003C442A46B9F1000F55
:109960000DD02146ABEB050B02F0F0FCDA452E449E
:109970003F6855464FF0000428BF5D46E1E70146C9
:109980002046EFE7FEF79ABFF8B546790146721E0A
:109990000546002393422D6803D30024A64202D833
:1099A000F8BD0133F6E70F682846FEF7C2FF013421
:1099B0003946F3E72DE9F843868ACD1C0746FEF7C2
:1099C00094FF043E35440446B5FBF6F5F0B14FF480
:1099D0008073EDB28380C680013D076081464FF001
:1099E0000008A84512D23846FEF77FFF064648B168
:1099F00063790133637108F10108C9F80000076059
:109A00008146EEE72046FFF7BFFF34462046BDE81B
:109A1000F88301210430FEF7D8BE10B501210446B9
:109A20000430FEF7DEFEC0B220B92046BDE810408B
:109A3000FFF7AABF10BD1FB503920022009203AA30
:109A4000FFF75DFF05B05DF804FB1FB5039201222F
:109A5000009203AAFFF753FF05B05DF804FB4FF037
:109A60008053D3F83001A0F10D035842584170479C
:109A7000024AD2F80034002BFBD0704700E00140CE
:109A800010B5FFF7ECFF40B14FF080430022C3F860
:109A90000C21C3F81021C3F83825FFF7E0FF002898
:109AA00046D04FF08052514BD2F80414C3F8201521
:109AB000D2F80814C3F82415D2F80C14C3F82815EA
:109AC000D2F81014C3F82C15D2F81414C3F83015BA
:109AD000D2F81814C3F83415D2F81C14C3F8401582
:109AE000D2F82014C3F84415D2F82414C3F848154A
:109AF000D2F82814C3F84C15D2F82C14C3F850151A
:109B0000D2F83014C3F85415D2F83414C3F86015E1
:109B1000D2F83814C3F86415D2F83C14C3F86815A9
:109B2000D2F84014C3F86C15D2F84424C3F8702559
:109B3000FFF795FF48B14FF08043D3F80024D207D8
:109B400044BF6FF00102C3F80024294AD2F88830DC
:109B500043F47003C2F88830BFF34F8FBFF36F8FA9
:109B60004FF08053D3F830210D2A0ED1D3F8343181
:109B7000022B02D81F4AD35C3BB14FF01023D3F81D
:109B800008224FF08043C3F858254FF01023D3F834
:109B90000022002A03DBD3F80432002B22DA164914
:109BA00001234FF01020C1F804351224FFF760FFA5
:109BB000C0F80042FFF75CFFC0F80442FFF758FF0F
:109BC0000023C1F80435FFF753FFBFF34F8F084957
:109BD0000A4BCA6802F4E0621343CB60BFF34F8FB5
:109BE00000BFFDE7064B074A1A6010BD00C00040E9
:109BF00000ED00E0FCD4020000E001400400FA05A2
:109C0000AC3200200090D003074B185C1F288ABF9D
:109C1000064B4FF0A04300F01F00D3F8043523FAA1
:109C200000F000F001007047FFD402000003005074
:109C3000074B1B5C1F2B86BF064903F01F034FF029
:109C4000A041012202FA03F3C1F80835704700BFB2
:109C5000FFD4020000030050074B1B5C1F2B86BF84
:109C6000064903F01F034FF0A041012202FA03F35B
:109C7000C1F80C35704700BFFFD40200000300504C
:109C800008B50020FFF7E8FFBDE808400120FFF716
:109C9000E3BF08B50020FFF7CBFFBDE80840012077
:109CA000FFF7C6BF0A4B185C1F288ABF094B4FF04D
:109CB000A04300F01F00D3F804250121814021EAD0
:109CC00002000A40C3F80805C3F80C25704700BF1E
:109CD000FFD4020000030050022805D000280CBF6A
:109CE00001204FF0FF30704700207047C20710B5C9
:109CF000044608D54FF0A0430322C3F80C27C3F84D
:109D00007027FFF7BDFFA30741BF4FF0A04300221C
:109D1000C3F80827C3F8002710BD00001FB503785B
:109D20008DF800304368019383688DF80830C3686C
:109D3000054A0393054B684653F8213052F8211029
:109D4000984705B05DF804FB643A00206C3A0020A7
:109D50001FB503788DF800304368019383688DF850
:109D60000830C368054A0393054B684653F8213011
:109D700052F82110984705B05DF804FB643A0020C2
:109D80006C3A0020F0B5194B90F800C0DFF86CE099
:109D900043F82C20164B16460A6943F82C204B7FBB
:109DA0000EF80C300C4607460FCC89B06D460FC537
:109DB00094E80F0085E80F003B78CDF810C01EF83E
:109DC00003304BB1002E0B4A694608BF3246381D9E
:109DD00000F022FE09B0F0BD002E074A694608BF18
:109DE000324607F10C0000F0DBFBF3E76C3A002091
:109DF000643A00201D9D0200519D0200743A00202B
:109E000000F18040002382B0036003680193019B4E
:109E100002B070474FF0804210B5D2F8003153B114
:109E20004FF48070FFF7ECFF0123C2F808330B4BAF
:109E300000201B6898474FF08042D2F8043163B18C
:109E40004FF48270FFF7DCFF0223C2F80833034BA4
:109E5000BDE810401B680120184710BD783A00206B
:109E600000F1804000F5C040002382B00360036829
:109E70000193019B02B0704703681F2B83BF03F05F
:109E80001F03036001484FF0A040704700030050DB
:109E900007B5019001A8FFF7EFFF019B00EB8300DE
:109EA000D0F8003723F44033C0F80037D0F800373B
:109EB00043EA0141C0F8001703B05DF804FB00005D
:109EC000054B4FF0FF32072843F8202084BFC0180D
:109ED00080F85220704700BF803A002038B51E49F4
:109EE00091F86430ABBB40F2FF30FF245A09012ADD
:109EF0000CBF02464FF0FF3203F01F05EA40D207C5
:109F000048BFCA1803F1010348BF82F830402A2B2A
:109F1000ECD10024E0B20134FFF7D2FF0C2CF9D1D0
:109F20000E4B0022C1F85E209A800D4BE02083F892
:109F30000603402018604FF4BE70FFF791FF094BF5
:109F40004FF00040C3F80403012381F86430104649
:109F500038BD0820FCE700BF803A0020DE3A002030
:109F600000E100E000600040034B93F8640000381B
:109F700018BF0120704700BF803A0020F7B53D4F61
:109F80003B18044693F93030002B71DA8B78C3F319
:109F90004003002B0BBF082500250C20082085421C
:109FA00002D1042003B0F0BD57F82560013647D137
:109FB00038196EB247F8252080F8306013B97B1944
:109FC00083F852408B785A071AD4D8073AD501A89B
:109FD0000194FFF751FF019B00EB8300D0F800379D
:109FE00023F00203C0F800372348E20804F0070C0E
:109FF000012303FA0CF310F802C043EA0C03835464
:10A0000088780B7810F0020028D0AD0005F180456B
:10A0100005F5C0452402D5F8102522F44F3222F46C
:10A020004072C5F810251B04D5F8102504F47C54A3
:10A0300003F440331C431443C5F810450020B1E736
:10A040000135ACE701A84A780194FFF715FF019BA1
:10A0500003F5E073920040F82320C5E7083E47FA75
:10A0600086F797F85A4044EA831387F85A3099E7FD
:10A07000082097E7803A0020DE3A002073B5244D8F
:10A080002E18044696F93020072A1DDD083A45FAB5
:10A0900082F595F85A309B09032B10D1019001A845
:10A0A000FFF7EAFE019BD0F81015D94001F001013D
:10A0B0000231204602B0BDE87040FFF7E9BE012B37
:10A0C0000CBF02210321F4E7D3B2072B1DD8930064
:10A0D00003F1804303F5C043D3F8100540F00100BD
:10A0E000C3F8100502F1400040B2800080B2FFF7D3
:10A0F000B7FE51B196F9303055F823302BB101231A
:10A1000003FA02F2034BC3F8042302B070BD00BF90
:10A11000803A00200060004007B5019001A8FFF7D9
:10A12000ABFE019BD0F81005D84000F0010003B051
:10A130005DF804FB2DE9FF470024CDE90244584DAA
:10A140004FF48072012102F1804303F5C04390B2C5
:10A150001B68012B06D1D5F804330B4202D0FFF760
:10A160007FFE0C430432B2F5907F4FEA4101EAD101
:10A170004B4BD3F87C31012B11D14FF4BE70FFF75C
:10A180006FFE4FF0A04344F00044D3F82025029224
:10A19000C3F82025D3F820280392C3F82028E3B27F
:10A1A000D3B1404F00250126344210D0AB0003F15B
:10A1B000804303F5C043D3F81005D3F8101557F8C2
:10A1C000253023B1C1F30141C0F305209847013583
:10A1D000082D4FEA4606E7D1002C59DA314D324CB2
:10A1E000324E4FF00008012716F9013B5A1C3CD0B3
:10A1F000C3F3C201103169445FFA83F911F8081CF6
:10A2000003F03F0203F0070307FA03F319422CD0CF
:10A2100001A80192FFF730FE019B03F5E07350F8AF
:10A220002330C3F3014ABAF1020F0CBF032102210C
:10A230001046FFF72DFE01A80192FFF71DFE019BBE
:10A2400007FA03F3C0F82035AB1893F9303055F80E
:10A25000233053B14FEA9911032904D0BAF1020F08
:10A2600019D1012901D11046984708F10108B8F128
:10A27000040FB9D14FF0A043D3F820250292C3F8C0
:10A280002025D4F820350393C4F820351343A7D1F3
:10A2900004B0BDE8F087BAF1030FE6D10229E1E787
:10A2A00000600040803A002000030050DA3A0020AD
:10A2B000014B1B68184700BFE83A00200E4B98423C
:10A2C00037B50C4602D0002003B030BD00230DF19D
:10A2D00007008DF80730FEF71BFA084B1D7915B9FA
:10A2E00001221C601A719DF80700FEF735FA002D57
:10A2F000E9D01120E8E700BF00200040E83A002044
:10A30000034B984201BF034B00221A601A71704739
:10A3100000200040E83A00200023435082B0435818
:10A320000193019B02B070472DE9F041224E234F6B
:10A33000DFF88C8000244FF48035D7F80433A6F57D
:10A3400080412B4289B20CD0336853B1C7F84853CF
:10A350003846C7F80853FFF7DFFFD8F80030E0B2FF
:10A3600098470134042C4FEA450506F10406E4D170
:10A370001248D0F80433DA070AD5D0F800313BB1DF
:10A380004FF48071FFF7C8FF0D4B20461B689847BC
:10A390000A48D0F804339B070CD5D0F804314BB1F0
:10A3A0004FF48271FFF7B8FF054BBDE8F0411B6821
:10A3B00005201847BDE8F0814041024000400240BE
:10A3C000F03A00200023435082B043580193019B90
:10A3D00002B070470A4610B54FF48E71FFF7F2FFD6
:10A3E000136A9168C95C136A01331362C0F81C15C3
:10A3F00010BD8B690A4610B54FF4847123B9FFF77D
:10A40000E1FFD0F8183510BDFFF7DCFF536AD168C3
:10A41000D0F81805C854536A01335362F3E70000BB
:10A420001FB501238DF80030044BCDE90110D3E9AD
:10A4300000126846904705B05DF804FBF43A00202E
:10A4400030B54D4DD5F804339A0585B051D5D5F8C2
:10A450002431002B4DD04FF492712846FFF7B2FF04
:10A460004FF40173C5F80833444B93F829200AB917
:10A4700001226A60404902228DF80020D1F8802430
:10A48000C1F8802403929A690292DA68019200224C
:10A49000C3E906226846D3E9001290473648D0F84F
:10A4A0001C315BB1354A5169136A99424DD992F812
:10A4B0002830002B49D11146FFF78CFF2E48D0F8E9
:10A4C0004431002B56D04FF4A271FFF77BFF2B4B8A
:10A4D00093F829200AB1012202609A69002A49D022
:10A4E000586AD96800229A6105B0BDE83040FFF78C
:10A4F00097BFD5F804335B07D0D5D5F80831002BCA
:10A50000CCD01E4C1C482146FFF773FF636AA2693A
:10A510009A42C3D1E369E1684BB1A3612369E36067
:10A520000023606AE3616362FFF77AFFB6E794F89D
:10A5300029300BB901236B600F4B4FF40172C3F844
:10A5400008230023606AA361EEE70B484FF48E7185
:10A55000FFF738FF5369002BB0D0516902910023F7
:10A5600091688DF80030019153616846D2E900137B
:10A570009847A3E705B030BD00200040F43A002022
:10A580001F2886BF00F01F00044B4FF0A04300F5CA
:10A59000E070022243F82020704700BF0003005003
:10A5A0002DE9F843604D90F804802C2303FB0853F9
:10A5B000064693F82A300C469146002B40F0AF80B7
:10A5C0005A490068FFF77AFE0746002840F0A98044
:10A5D0002268531C10D01F2A87BF554902F01F0361
:10A5E00013464FF0A0410120984003F5E073C1F8F5
:10A5F0000805032041F823006168481C0DD01F297D
:10A600008BBF01F01F030B4649484FF0A04003F5F4
:10A61000E0734FF0000C40F823C03068A369C0F825
:10A62000243594F814C0637DBCF1010F4CEA030398
:10A63000C0F86C35C0F81415C0F80C252BD1A368F0
:10A64000591C0DD01F2B8BBF03F01F021A4638492F
:10A650004FF0A04102F5E0724FF0000C41F822C02B
:10A66000E1684A1C13D01F2987BF314A01F01F0C33
:10A670008C464FF0A0424FF0010E0EFA0CFE0CF586
:10A68000E07CC2F808E54FF0030E42F82CE0C0F879
:10A690000815C0F810352C2202FB08F2AB18C3F8DD
:10A6A00004902369AB50B9F1000F20D04FF48E71A4
:10A6B000247FFFF787FE4FF4A2713068FFF782FE18
:10A6C00032681C4BC2F80433130B42F307326101AA
:10A6D000002AC9B21EDB1848841884F8001301212F
:10A6E000520903F01F0301FA03F340F822303368E4
:10A6F0000422C3F800252C2303FB08530022C3E9DE
:10A70000062283F829205A61012283F82A2038463C
:10A71000BDE8F883094A03F00F03D154E7E708279F
:10A72000F5E71127F3E700BFF43A002041A4020047
:10A73000000300508000020000E100E014ED00E0A2
:10A740002DE9F04103680579284C0022C3F8002563
:10A750002C2202FB054201465268A2B1244AC3F8EA
:10A7600008231A0B43F30733002B0CDB02F01F0006
:10A770005B090122824020331E4840F82320BFF3AA
:10A780004F8FBFF36F8F0B68D3F80C05D3F8148588
:10A79000D3F80865D3F810754FF0FF329042C3F834
:10A7A0001425C3F80C25C3F80825C3F8102501D0DB
:10A7B000FFF7E6FEB8F1FF3F02D04046FFF7E0FEAC
:10A7C0007A1C02D03846FFF7DBFE731C02D03046FD
:10A7D000FFF7D6FE0868FFF793FD2C2303FB054423
:10A7E000002384F82A306360BDE8F081F43A002049
:10A7F0008402020000E100E00279044B2C2101FBFD
:10A8000002335869003818BF01207047F43A00201D
:10A810002DE9F84F064690F8048089469246FFF7E6
:10A82000EBFF044600283CD1204F2C2508FB057B7C
:10A830004FF48E71CBF814A0CBF80890CBF8200021
:10A840008BF828003068FFF7BDFD30680123836076
:10A850005946FFF7BFFDDBF804305D461BBB30688F
:10A86000DBF814402B6A9C4211D83368D3F81C21C2
:10A87000002AFBD00122DA6000202C2303FB08779A
:10A8800000237B61BDE8F88F95F828303BB9D0F8FC
:10A890001C31002BF8D05946FFF79CFDE2E70F2052
:10A8A000EBE71120EEE72046ECE700BFF43A00208A
:10A8B0000023435082B043580193019B02B070477C
:10A8C0001FB501238DF80030044BCDE90110D3E909
:10A8D00000126846904705B05DF804FB203B00205D
:10A8E0007FB5434AD2F82461002E60D010464FF461
:10A8F0009271FFF7DDFF02238DF80030D2F880342B
:10A90000C2F880340393D2F83C350293394BDA68AD
:10A9100001920022C3E906226846D3E9001290475B
:10A920003348D0F8443173B14FF4A271FFF7C0FF40
:10A93000304B9A693AB10022C3E90622D968D0F8AF
:10A940003C05FFF7BDFF2A48D0F82031ABB14FF4EA
:10A950009071FFF7ADFF0123C360264B5A6962B1C6
:10A96000D0F84C150291002299688DF800200191D1
:10A970005A616846D3E9001290471D48D0F8583113
:10A980009BB14FF4AC71FFF793FF1A4B5A6962B158
:10A99000D0F84C150291002299688DF800200191A1
:10A9A0005A616846D3E90012904704B070BDD2F8EE
:10A9B0001031002BB4D04FF488711046FFF778FFA8
:10A9C0000C4BD2F83C0599698842A9D1DC69D96859
:10A9D00064B1D2F8005225F02005C2F800521A697D
:10A9E0009C61DA60DE61FFF76BFF99E79C61FAE733
:10A9F00000200040203B00201F2886BF00F01F00E1
:10AA0000044B4FF0A04300F5E070022243F82020F1
:10AA1000704700BF000300502DE9F843664E90F8E0
:10AA20000480242303FB0863044693F820300D467A
:10AA30009146002B40F0BC8060490068FFF73EFC67
:10AA40000746002840F0B68029684B1C10D01F290B
:10AA500087BF5B4A01F01F030B464FF0A042012065
:10AA6000984003F5E073C2F80805032042F823007C
:10AA70006A68501C0DD01F2A8BBF02F01F031346BB
:10AA80004F484FF0A04003F5E0734FF0000C40F842
:10AA900023C02068AB69C0F8243595F814C06B7DDD
:10AAA000BCF1010F4CEA0303C0F86C35C0F80C157B
:10AAB000C0F814252BD1AB68591C0DD01F2B8BBFB0
:10AAC00003F01F021A463E494FF0A04102F5E07222
:10AAD0004FF0000C41F822C0E9684A1C13D01F292E
:10AAE00087BF374A01F01F0C8C464FF0A0424FF051
:10AAF000010E0EFA0CFE0CF5E07CC2F808E54FF0F2
:10AB0000030E42F82CE0C0F80815C0F810352422D6
:10AB100002FB08F2B318C3F804902B69B350B9F1E3
:10AB2000000F2FD04FF488712A7FFFF7C1FE2068F5
:10AB30004FF49071FFF7BCFE20684FF49271FFF75D
:10AB4000B7FE20684FF4A271FFF7B2FE4FF4AC716C
:10AB50002068FFF7ADFE23681A49C3F80413190BE8
:10AB600043F307335201002BD2B21CDB1648C51841
:10AB700085F8002301225B0901F01F0102FA01F1AF
:10AB800040F8231023680822C3F80025242303FB80
:10AB900008660023C6E906337361012386F8203076
:10ABA0003846BDE8F883094B01F00F015A54E9E734
:10ABB0000827F5E71127F3E7203B0020E1A8020072
:10ABC000000300501003420000E100E014ED00E03B
:10ABD0002DE9F0413D4D06790468242303FB06531B
:10ABE00002465B68ABB13A4BC4F8083344F3073311
:10ABF000002B4FEA14310CDB01F01F005B0901212F
:10AC000081402033334840F82310BFF34F8FBFF308
:10AC10006F8FD4F8003223F02003C4F800322423CD
:10AC200003FB06539B6933B14FF4A2712046FFF733
:10AC30003FFE012363604FF4AC712046FFF738FEFE
:10AC40000123E360242303FB0653D4F858110029A1
:10AC5000FBD0996919B1D4F844110029F5D000232B
:10AC6000C4F800351368D3F80C05D3F81485D3F86D
:10AC70000815D3F810754FF0FF329042C3F80C2539
:10AC8000C3F81425C3F80825C3F8102501D0FFF731
:10AC9000B3FEB8F1FF3F02D04046FFF7ADFE7A1C8D
:10ACA00002D03846FFF7A8FE4B1C02D00846FFF73B
:10ACB000A3FE2046FFF724FB242303FB06550023B5
:10ACC00085F820306B60BDE8F08100BF203B00209C
:10ACD0001003420000E100E00279044B242101FB53
:10ACE00002335869003818BF01207047203B00200C
:10ACF00001F06043B3F1005F2DE9F0470646884656
:10AD000092463BD190F80490FFF7E6FF04460028F6
:10AD100036D11D4F3068242505FB09754FF490711D
:10AD2000C5F814A0C5F80880FFF7C2FD4FF4AC7158
:10AD30003068FFF7BDFD33686A69A968C3F8441538
:10AD4000C3F8482501229A606A68DAB9D3F820214D
:10AD5000D3F858011AB90028F8D00F2007E00028CE
:10AD6000FBD10122DA60D3F85821002AFBD024233A
:10AD700003FB097700237B61BDE8F0871020FBE728
:10AD80001120F9E72046F7E7203B00200220FEF7DC
:10AD900089BF00002DE9F04780460D46FEF79CFF75
:10ADA0000128044610D8012D10D0022D30D05DB9F5
:10ADB0001A48FDF79DFC1A4B04EB440213449D789E
:10ADC000184B1B5DAB4219D0BDE8F087144E00EB69
:10ADD0004003F218F55C5378470053B1DFF84C900C
:10ADE0000E484A464FF40041FDF736FC08B989F891
:10ADF000008027443E440B4BB2781A55002DE3D017
:10AE0000094B1B68002BDFD02846BDE8F0471847E8
:10AE100000EB4004024804446578EFE7683B0020FB
:10AE2000A83B0020BD3B0020B83B0020443B002055
:10AE300000780221FFF7AEBF08B5074B1B783BB186
:10AE40000020FEF709FFBDE808400120FEF704BF1F
:10AE5000BDE80840FEF714BF453B0020F8B57A4C2A
:10AE6000237805461BB100232370FFF7E5FF172D5C
:10AE700000F28780DFE805F00C1717425364757FF6
:10AE8000878C878C949999999999C3C8D0D8E3E312
:10AE9000FFF7D2FF6D48FDF72BFC6D4B00220446F7
:10AEA0001A702046F8BD0020FEF7AEFEF0B100207B
:10AEB000FEF7D2FE022D0CBF4FF4E1644FF47A642A
:10AEC000634B1D7000254FF400464FF4FA7029467D
:10AED0004FF47A720023E4FB060101F06DF92A4673
:10AEE0000146BDE8F8405948FDF7B6BBFEF7A0FEA5
:10AEF000022D0CBFC8244FF4C874E1E70020FEF710
:10AF000083FE40B10020FEF7A7FE4FF44874504B7B
:10AF100003221A70D6E7FEF78BFEC824F7E700205D
:10AF2000FEF772FE38B10020FEF796FE4FF47A6409
:10AF3000474B0422EDE7FEF77BFE4FF4C874F7E7BA
:10AF40000020FEF761FE48B10020FEF785FE404B71
:10AF500005221A7041F69A110022C2E7FEF768FE38
:10AF6000F5E70020FEF79EFE394B06221A700022FC
:10AF700040F6CD41B5E70020FEF75AFE344B0722DC
:10AF80001A7000248DE701202070FEF78BFEEEE79B
:10AF900001202070FEF786FE00224FF48041A0E7DA
:10AFA000FEF777FE2A4B0C22EAE72A482A4EFDF7E5
:10AFB0009FFBD5F1110504461CD0D8B9012D13D043
:10AFC000C820454321464FF400474FF4FA704FF430
:10AFD0007A720023C5FB070101F0EEF82246014614
:10AFE0001C48FDF739FB04460220FEF721FE012331
:10AFF000337056E70220FEF72FFE0023F8E7FFF735
:10B000001BFF134B1222BBE7FFF716FF0020FEF7D2
:10B010000FFE0F4B1322B3E7FFF70EFF0120FEF7E1
:10B0200007FE0B4B1422ABE7FFF706FF0020FEF7ED
:10B03000FFFD0120FEF7FCFD054B1522A0E7FEF702
:10B0400028FE034B1D709CE7B43B0020883B00208A
:10B05000BC3B0020483B0020453B0020044B1B68C4
:10B06000DB0703D5034B1878FFF7F8BE704700BF26
:10B07000B03B0020BC3B002038B51A4B18601A4B7F
:10B0800010F002040546196016D0184B18480E221D
:10B090001A700F22DA70022140F26662FCF774FF28
:10B0A000044648B9FCF7C8FF044628B90146114ACE
:10B0B0001148FDF7BFFA0446EB0711D50120FEF752
:10B0C00015FE6CB921460D4A0D48FDF7B3FA04464A
:10B0D00030B9BDE838400B4A0B480121FDF7AABA48
:10B0E000204638BDB03B0020B83B0020A83B0020E4
:10B0F00024D5020031AE020038D502005DB0020056
:10B100003CD502008DAD020034D5020072DF7047DD
:10B1100073DF704774DF704775DF704776DF704705
:10B1200077DF70477ADF70477CDF7047B1DF7047A9
:10B130001D4B10B5044618700320FEF78DFDDCB1E1
:10B14000012C30D11948FDF7D3FA20B1184A40F24A
:10B15000FB21FCF7B3FF0320FEF77EFD154800221C
:10B1600041F69A11FDF778FAE8B1114A40F2FF2151
:10B17000BDE81040FCF7A2BF0E48FDF7B9FA20B1B8
:10B180000B4A40F20731FCF799FF0220FEF764FDFD
:10B190000648002241F69A11FDF75EFA18B1044AFA
:10B1A0004FF44371E4E710BD003C0020043C002054
:10B1B00040D50200443C002070B5164B164C174E8B
:10B1C000174D1849E41AE408240444F00304204607
:10B1D000FCF742FC96F9002029780120FFF7A0FF38
:10B1E00020B1114A4FF4FC71FCF768FF0F49327827
:10B1F0002046FCF735FC28780121FFF789FF20B1B4
:10B20000094A40F2FD11FCF759FF094B00221A7060
:10B2100070BD00BF14C5020044C50200CC3200203E
:10B22000C0320020D2D5020040D50200E8D502008D
:10B23000013C002010B598B01822002103A801F0AD
:10B24000AEF84FF4966305930124474B08933C22D4
:10B25000002109A88DF80C4001F0A1F8434B099397
:10B26000434B1B78002B39D1424B43484349C01A0A
:10B27000C008000440F003000190FCF7EDFB404BD8
:10B2800001981B788DF821408DF82240EBB93D499B
:10B29000FCF7E2FB8DF80C403B4A09A852F8041B6E
:10B2A00000F0A4FB20B1394A40F2C911FCF706FFB7
:10B2B0003549374803AAFFF729FF20B1334A4FF435
:10B2C000E671FCF7FBFE18B010BD012BE4D131494B
:10B2D000FCF7C2FB04238DF80C30DDE7012BF2D123
:10B2E000244B25482C49C01AC008000440F0030034
:10B2F0000190FCF7B1FB04238DF821308DF822304A
:10B300001F4B01981B78E3B92449FCF7A5FB1E4AA3
:10B31000062352F8041B8DF80C3009A800F066FBD8
:10B3200020B11A4A4FF4EE71FCF7C8FE16491848CE
:10B3300003AAFFF7EBFE0028C5D0144A40F2DF1144
:10B34000BFE7012BBFD11649FCF786FB0823104845
:10B350008DF80C3003AA0021FFF7D8FE0028B2D0E8
:10B360000A4A40F2EB11ACE70001011002000006AE
:10B37000C132002014C5020044C5020003D60200F9
:10B38000003C002022D60200B032002040D502004E
:10B39000C03200205CD6020099D60200C1D602005D
:10B3A00007D702000120FEF77DBC0020FEF77ABC23
:10B3B0000320FEF777BC0220FEF774BC08B5114BE2
:10B3C0000246187010B101280ED008BD0E484FF487
:10B3D000C041FDF741F90028F7D0BDE808400B4A0D
:10B3E0004FF43071FCF76ABE0748FDF781F920B1D0
:10B3F000064A4FF43271FCF761FEBDE808400020B8
:10B40000FEF716BCC1320020C03B002040D5020030
:10B4100008B5124B187090B108281ED10120FEF714
:10B420001BFC0F4800224FF4C041FDF715F9A0B1F5
:10B43000BDE808400B4A4FF42071FCF73FBE0848B6
:10B44000FDF756F920B1074A40F28A21FCF736FE93
:10B45000BDE808400120FEF7EBBB08BDCC32002060
:10B46000E03B002040D5020008B5094B1878FFF7F3
:10B47000A5FF084B1878FFF75BFE074B1878FFF71E
:10B48000C7FFFFF7D7FEBDE80840FFF795BE00BF36
:10B49000C1320020003C0020CC3200201128F8B539
:10B4A0004FF000034CD00F2837D010283ED00E2884
:10B4B00006D1244B1878B0FA80F04009FFF77EFFE0
:10B4C000214B224F1878FFF725FE3A884FF6FF737D
:10B4D0009A421CD01E4B1F4C1F49204E204DE41A8F
:10B4E000E408240444F00300FCF7B6FA012338888A
:10B4F000337013212B70FFF711FE0246F8B1194982
:10B5000044F00100FCF7ACFA002333702B70FFF716
:10B5100091FEBDE8F840FFF74FBE134A1278002AAB
:10B5200014BF18460820FFF773FFC9E70F4A1278C7
:10B53000002A14BF18460120FFF7FAFDC0E7FEE716
:10B54000F8BD00BFC1320020C0320020C23200204E
:10B5500014C5020044C502004DD70200013C002082
:10B56000643C00205ED70200CC320020003C00206A
:10B5700010B503881F2B88B0044678D007D8112B4C
:10B5800054D0122B64D0102B17D008B010BD522B02
:10B5900000F089800FD8202B00F096803B2BF4D14F
:10B5A0005B4B13211888FFF7B9FD0028EDD0594AED
:10B5B0004FF4B07183E0562BF1E7574CC37B544AEC
:10B5C0002370564B81881180032093F90020FFF7E8
:10B5D000A7FD18B14F4AEB21FCF770FD2378012B32
:10B5E0001BD14F484F4B5049C01AC008000440F0CF
:10B5F0000300FCF731FA4D4B1878FFF78BFD4C48F0
:10B60000FDF776F818B1434AFB21FCF757FD0320FC
:10B6100008B0BDE81040FEF70BBB022BEBD1404851
:10B62000404B4449C01AC0080004E0E7384B4FF6CD
:10B63000FF721A80404B00221A70404B1B78002B7F
:10B64000A3D1FEF71DFB08B0BDE81040FFF70CBF0B
:10B65000344B334822893A49C01AC0086389000430
:10B6600040F0030008B0BDE81040FCF702BAD0E992
:10B67000020106AB83E80300A0881946FFF74CFDE2
:10B6800020B1244A4FF4A671FCF718FD254B24483D
:10B6900022892C49C01AC0080004638940F00300C5
:10B6A000FCF7E7F971E7002380881A461946FFF78F
:10B6B0003DFD00283FF469AF164A40F2571108B02B
:10B6C000BDE81040FCF7FABC1F4B90F9092093F934
:10B6D000001091423FF459AF1A701148114B1B49A9
:10B6E000C01AC008000440F003000590FCF7B8F948
:10B6F000237C0393E37B0293A37B0193637B0093FF
:10B70000237BE27A12490598FCF7CDF93DE700BFAB
:10B71000C232002040D50200433C0020CC32002041
:10B7200044C5020014C502009AD70200C0320020AE
:10B73000043C0020B5D70200643C0020013C0020FE
:10B74000E0D7020009D80200653C002041D8020081
:10B7500066D802001FB54FF400410020FBF7DEFF62
:10B7600020B1524A40F20721FCF7A8FCFBF714FF76
:10B77000FCF730FF20B14D4A40F21721FCF79EFC48
:10B780004B4A4C480121FCF755FF20B1474A40F293
:10B790001B21FCF793FC484A48480121FCF74AFF6B
:10B7A00020B1424A40F21E21FCF788FC444A454839
:10B7B0000121FCF73FFF20B13C4A40F22121FCF778
:10B7C0007DFC414A41480121FCF734FF20B1374A52
:10B7D0004FF40971FCF772FC3D490320FFF74CFC64
:10B7E00020B1324A40F26731FCF768FCFDF778FF80
:10B7F00020B12E4A4FF41871FCF760FC00F00EFBEC
:10B8000020B12A4A4FF40C71FCF758FC002303A91D
:10B810000120039300F09AFB20B1244A40F2362124
:10B82000FCF74CFC03A800F055FC20B11F4A40F285
:10B830003A21FCF743FC112326498DF80C300B22EA
:10B8400003A8FFF771FC20B1184A4FF41471FCF7FC
:10B8500035FC2148FFF766FC20B1144A40F2532121
:10B86000FCF72CFC1D4B1E481E49C01AC0080004E2
:10B8700040F003000190FCF7EFF81B490198FCF73A
:10B88000EBF81A490198FCF7E7F819490198FCF719
:10B89000E3F818490198FCF7DFF8FFF7E5FDFBF73F
:10B8A0008FFF0028FBD1FDF731FFF8E740D50200FC
:10B8B000B7B30200A8D90200B1B30200A4D90200B4
:10B8C000ABB302009CD90200A5B30200A0D90200CC
:10B8D0009DB4020089D80200C432002014C50200C1
:10B8E00044C5020095D80200B5D80200F0D8020085
:10B8F0001DD9020054D902006DDF704779DF70470F
:10B900007DDF704764DF70472DE9F04F85B000257B
:10B910000E9CBDF83CB0B4F800A0019107469046DB
:10B920001E46A9463A884A450DDC45B12388013BAD
:10B93000A3EB0A039BB2FF2B3AD806F80A3000208B
:10B9400005B0BDE8F08F7A6852F829000390002214
:10B950000DF10B0103A8FFF7D5FF0028F0D19DF8EA
:10B960000B20424521D12288002D14BF0020022047
:10B9700002EB0801014459451ADC3DB9013292B28B
:10B98000019B2280B35422880132228022880DF14B
:10B990000B01324403A8FFF7B5FF0028D0D121885E
:10B9A0009DF80B200A442280012509F10109B9E71D
:10B9B0000C20C5E72DE9F341089FBDF8248015460A
:10B9C000CDE90078022204461E46FFF79DFF50B9DC
:10B9D0003346102229462046CDE9087802B0BDE85A
:10B9E000F041FFF791BF02B0BDE8F0812DE9F04FC3
:10B9F00000231788138090F82D3085B006460D4639
:10BA000014465BB3082F01D80C2028E102A8FFF7E9
:10BA100073FF002840F023812388DDF809100822F5
:10BA2000EA54238801339BB21B222380EA542388E3
:10BA300001339BB2EA182380E950BDF80D309380A2
:10BA400023889DF8082006339BB212F0FE0218BF2F
:10BA500001222380EA54238801332380B378FBB189
:10BA600023880433BB42CFD802A8FFF747FF002842
:10BA700040F0F58023880322EA54238801339BB2E7
:10BA800019222380EA542388BDF8082001339BB291
:10BA9000E9182380EA54120A4A702388023323806B
:10BAA000F2789AB12388D91CB942ADD80221E95461
:10BAB000238801339BB201212380E95423880B445E
:10BAC0009BB22380EA5423880B4423807268AAB176
:10BAD0002388D91CB94297D8022192F90020E95451
:10BAE000238801339BB20A212380E9542388013340
:10BAF0009BB22380EA542388013323803389002BAF
:10BB000040F0A180338A5BB1CDE900472B46072284
:10BB1000032106F11000FFF74DFF002840F09F8041
:10BB2000338B5BB1CDE900472B461522142106F17A
:10BB30001800FFF73FFF002840F09180326A002A8A
:10BB400040F09080D6F82480B8F1000F30D0B8F8DB
:10BB500004302188981C8A1C0244BA423FF654AF34
:10BB6000FE283FF651AF03336B54238801339BB259
:10BB7000FF222380EA54238801339BB22380B8F844
:10BB80000020EA54E918120A4A702088023080B274
:10BB90002080B8F804205AB1D8F8081000296BD0DA
:10BBA000284400F0D3FB2388B8F8042013442380F2
:10BBB00096F82C30002B40F09880307800284ED03A
:10BBC0003388012B58D0228802F1020CBC453FF685
:10BBD0001BAF012805D17378023313449F42FFF451
:10BBE00013AF023FBF1ABFB202A905EB0C00ADF8BC
:10BBF0000870FFF785FE90BB3178BDF80830022948
:10BC000000F0B98072789A4202D39F4280F0B180EE
:10BC1000012940F0B280974293B2C0F0AE80ADF8F7
:10BC200008300821BDF80830FE2B3FF6EDAE228823
:10BC30000133AB542288013292B22280A954228867
:10BC4000134423800BE0CDE900472B460622022156
:10BC500006F10800FFF7AEFE00283FF453AF05B031
:10BC6000BDE8F08FB4F800C00CF10603BB423FF60C
:10BC7000CBAE1188052901D80720F0E76FF4486E94
:10BC800001EB0E039BB24FF27D3E7345F4D953880E
:10BC9000052BF1D96FF44860181880B27045EBD9C4
:10BCA0004FF6FF70814201D09942E5D8052305F88F
:10BCB0000C30238801339BB212212380E95423885E
:10BCC00001339BB223801188E954E818090A4170B6
:10BCD000238802339BB223805288EA54E918120A5F
:10BCE0004A702388023323802CE7B36A002BC3D029
:10BCF0004FF000084FF00C0A4FF0160BB16A5FFAD4
:10BD000088F20AFB02F201EB0209B9F80430981C30
:10BD1000FE283FF679AE208803332B542388013365
:10BD20009BB2238005F803B0238801339BB22380A4
:10BD30008A5AEA54E918120A4A702088023080B2FE
:10BD40002080B9F804205AB1D9F80810002993D0FE
:10BD5000284400F0FBFA2388B9F804201344238018
:10BD600096F82C2008F101085FFA88F39A42C5D8AA
:10BD700023E7092156E79F42FBD2ADF8087050E750
:10BD800010DF704713B5044609496846FDF76FFD9B
:10BD9000019808B902B010BDD0E9002120469047B3
:10BDA00018B16846FDF76DFDF2E71120F2E700BF1C
:10BDB0001CDA020013B5044607496846FDF757FD33
:10BDC000019B0BB902B010BD2046D3E9002190477A
:10BDD0006846FDF756FDF3E734DA02000C4991F8A6
:10BDE00016335A09EC231341DB0706D5094B9A6831
:10BDF0004AB94FF480030B607047074AA12142F211
:10BE00000200FCF75BB91A6842F480021A607047BE
:10BE100000E100E0483A0020ACD90200F7B5194F24
:10BE20003C7864BB184E012520463570FFF7AAFF09
:10BE3000112821D02046FFF7BDFF144B8DF8034099
:10BE4000186801900DF10300FCF762FC104901A88D
:10BE5000FFF796FF0446B0FA80F0400938709DF86D
:10BE60000300FCF779FC3CB90A4B34701C70FFF7F7
:10BE7000B5FF2846FFF79EFF204603B0F0BD08241B
:10BE8000FAE700BF673C0020663C002015DA02009C
:10BE9000D9800200683C0020014B1878704700BF31
:10BEA000673C002007B508496846FDF7E0FC019BA8
:10BEB00013B903B05DF804FBD3E90020904768464E
:10BEC000FDF7DFFCF3E700BF28DA0200FFF7EABF67
:10BED00060DF704769DF704761DF704730B5154D2F
:10BEE000ADF5017D4FF4FA740DF1020103A8ADF830
:10BEF0000240FFF7F1FF70B9294601A8FDF7B7FC32
:10BF0000029B002BF0D003A8D3E90021904701A8A1
:10BF1000FDF7B7FCF4E7052808D0074A40F23B11CB
:10BF20000DF5017DBDE83040FCF7C8B80DF5017D89
:10BF300030BD00BF24DD020040DA0200024B1B7856
:10BF40000BB1FFF7CBBF7047693C002030B5054609
:10BF500085B00C46002900F0A9800023CDE901330B
:10BF6000534A039301230A608DF804008DF80630CC
:10BF700001A94FF4C8732020ADF80830FFF7AAFFDD
:10BF800060B1FDF7A9FC4B4B4B4902464B481B1ACD
:10BF9000DB081B0443F00100FBF762FD0023CDE941
:10BFA0000133039301238DF80530226840F2011319
:10BFB00001A94020ADF80630FFF78CFF60B1FDF716
:10BFC0008BFC3C4B3E4902463C481B1ADB081B04D9
:10BFD00043F00100FBF744FD0023CDE90133039357
:10BFE00022688DF80450F72301A92320ADF806300C
:10BFF000FFF770FF60B1FDF76FFC2E4B3149024631
:10C000002E481B1ADB081B0443F00100FBF728FD38
:10C01000002301202268039301A9CDE901338DF8A3
:10C020000400FFF757FF60B1FDF756FC214B26498E
:10C03000024622481B1ADB081B0443F00100FBF7F1
:10C040000FFD0023CDE9023322684FF4B06301A94C
:10C05000A1200193FFF73EFF60B1FDF73DFC154BBA
:10C060001A49024615481B1ADB081B0443F001005D
:10C07000FBF7F6FC00252268039501A9A020CDE975
:10C080000155FFF727FF034668B1FDF725FC094B73
:10C090000F49024609481B1ADB081B0443F0010044
:10C0A000FBF7DEFC2B46184605B030BD0E23FAE741
:10C0B000783200205CC50200A5DA020014C5020037
:10C0C000EBDA020037DB02007EDB0200CADB020093
:10C0D0001BDC020073B505460668FFF7F9FE2B6806
:10C0E000B34204461DD91A481A4B1B491B1ADB08D8
:10C0F0001B0443F002000190FBF7AEFC2B681749CC
:10C1000001983246FBF7B5FC4FF080532A68D3F80C
:10C110000C31134901989B0203F100539A1AFBF763
:10C120009FFC2CB90F4B01221A70204602B070BD43
:10C130002046FDF7D1FB074B0B49024604481B1A6A
:10C14000DB081B0443F00100FBF78AFCEDE700BFAE
:10C1500014C502005CC502006EDC02009DDC02001A
:10C16000CEDC0200693C0020F8DC02004BDF7047A7
:10C170001FB50F4C01A8FFF7F9FF70B9214602A8BF
:10C18000FDF775FB039B002BF4D00198D3E9002148
:10C19000904702A8FDF775FBF4E7052806D0054A8D
:10C1A0006B2104B0BDE81040FBF788BF04B010BDA0
:10C1B000A4DD020030DD020053EA020C61D02DE95B
:10C1C000F04BB3FA83F51E0007BFB2FA82F502FA0C
:10C1D00005F403FA05F41646C5F120051EBF22FA40
:10C1E00005F73C43203556EA044C4FEA144418BF87
:10C1F0000134A3464FF00009C846904271EB030C8E
:10C2000039D3094207BFB0FA80F700FA07F6B1FA4E
:10C2100081F701FA07F6C7F120071EBF20FA07FCD5
:10C2200046EA0C062037B6FBFBFC7F1B103F07F0ED
:10C230001F04C4F120060CFA04F42CFA06F644BFDD
:10C2400034460026202FA4BF2646002454EA060CBC
:10C2500008BF012418EB040849EB0609A4FB027C83
:10C26000C01B06FB02CC04FB03CC71EB0C0190421B
:10C2700071EB030CC5D20B46024649464046BDE869
:10C28000F08BB2FBF3F200007F2805D8034B185C5B
:10C29000034B5B5C1840704700207047BCDD020018
:10C2A0003CDE0200A0F16103192B98BF20387047D3
:10C2B000A0F14103192B98BF203070477F2805D883
:10C2C000034B185C034B5B5C1840704700207047C1
:10C2D000BCDD02003CDE0200A0F16103192B98BF17
:10C2E00020387047A0F14103192B98BF20307047C8
:10C2F0007F299ABF017001206FF02E0070475AB15C
:10C300000A787F2A0AD800B10260002119605960BA
:10C31000501A18BF01207047002070476FF02E00A0
:10C320007047000008B5034B5B689B681B68984723
:10C3300008BD00BFD032002008B50821FFF7F2FF8A
:10C3400008BD08B50921FFF7EDFF08BD844640EAA6
:10C35000010313F0030F18D18446202A0BD32DE9D3
:10C36000F007B1E8F807A0E8F807A2F12002202AB8
:10C37000F7D2BDE8F007042A07D351F8043B40F890
:10C38000043BA2F10402042AF7D2002A05D011F8D6
:10C39000013B00F8013B013AF9D160467047844601
:10C3A000002A2DD010F0030F04D000F8011B013A31
:10C3B00026D0F7E7C9B241EA012141EA0141202A2A
:10C3C00012D3A2F120022DE9F0030B460C460D46D4
:10C3D0000E460F4688468946A0E8FA03203AFBD26B
:10C3E000BDE8F00320320BD0042A05D340F8041B2B
:10C3F000043A05D0042AF9D200F8011B013AFBD116
:10C400006046704710F0030F19D111F0030F16D1D9
:10C410002DE970004FF001364FF0803350F8044B97
:10C4200051F8045BAC4205D1A4EB060525EA0405EE
:10C430001D40F3D0A0F10400A1F1040170BC10F87C
:10C44000012B11F8013BD21A01D1002BF7D1104674
:10C45000704700F1010110F0030F11D010F8012B0B
:10C46000002A23D010F0030F0AD010F8012B002A65
:10C470001CD010F0030F03D010F8012B002A15D0A8
:10C480002DE970004FF001324FF0803350F8044B2B
:10C49000A4EB020525EA04051D4000D1F6E7A0F152
:10C4A000040070BC10F8012B002AFBD1A0EB0100A6
:04C4B00070470000D1
:08C4B40071B502000000000058
:10C4BC003DBF02000000000071C10200000000003E
:10C4CC0028330020F0330020F833002030330020D4
:08C4DC005EC60200180000001A
:10C4E4000000000020C9020000000000DCCE0200B1
:10C4F40000000000CCCE020000000000BCCE020010
:10C5040000000000ACCE020000000000CCCF02000E
:10C5140001D502000000000007D502000000000061
:10C524000ED502000000000012D502000000000039
:10C5340016D50200000000001BD502000000000018
:10C544005AC602000000030340C7020000000000B6
:10C554000DDA02000000030315DD020000000303EE
:10C5640095DD020000000303FFCE0200000000007E
:10C574002CC602000000000038C60200A4320020CD
:10C5840000000000000000000000000000000000A7
:08C5940000000000000000009F
:10C59C002F686F6D652F6A6D6865727265726F2F8B
:10C5AC00706572736F6E616C2F70726F6A656374F5
:10C5BC00732F6E5246355F53444B5F31372E312EFD
:10C5CC00305F646464653536302F636F6D706F6EE9
:10C5DC00656E74732F6C69627261726965732F6C0E
:10C5EC006F672F7372632F6E72665F6C6F675F621B
:10C5FC0061636B656E645F756172742E630000001D
:10C60C00FFFFFFFFFFFFFFFFFFFFFFFFFFFFFFFF2E
:10C61C0000000000000000000000D601070100002F
:10C62C00F974020065750200A174020075617274E0
:10C63C005F6C6F675F6261636B656E640042616320
:10C64C006B656E647320666C7573686564006170ED
:10C65C0070006C6F675F6D656D706F6F6C000000C4
:10C66C00183800207F000000983800201B5B313BFD
:10C67C0033316D0025734C6F67732064726F70706B
:10C68C006564202825642925730D0A001B5B306D19
:10C69C00003C25733E2025733A200020253032784B
:10C6AC0000202020007C002563001B5B313B3330D5
:10C6BC006D001B5B313B33326D001B5B313B333305
:10C6CC006D001B5B313B33346D001B5B313B3335F1
:10C6DC006D001B5B313B33366D001B5B313B3337DD
:10C6EC006D006572726F72007761726E696E6700B1
:10C6FC00696E666F006465627567000098C602001B
:10C70C00B6C6020078C60200BEC60200C6C602004B
:10C71C00CEC60200D6C60200DEC60200E6C6020085
:10C72C0000000000EEC60200F4C60200FCC60200C7
:10C73C0001C702006170705F627574746F6E0000E7
:10C74C00B8380020534F46544445564943453A2087
:10C75C00415353455254494F4E204641494C454450
:10C76C0000534F46544445564943453A20494E568A
:10C77C00414C4944204D454D4F525920414343456E
:10C78C00535300415353455254494F4E204641494F
:10C79C004C45442061742025733A2575004552524E
:10C7AC004F52202575205B25735D20617420257305
:10C7BC003A25750D0A50432061743A2030782530A3
:10C7CC00387800456E64206F66206572726F722037
:10C7DC007265706F727400554E4B4E4F574E20461B
:10C7EC0041554C5420617420307825303858000065
:10C7FC00000000000338FDD870474261642061726C
:10C80C0067756D656E7420636F756E740025730D9E
:10C81C000A092D20456C656D656E742073697A6507
:10C82C003A092564202B20256420627974657320D5
:10C83C006F6620646562756720696E666F726D61E4
:10C84C0074696F6E0D0A092D2055736167653A097D
:10C85C002575252520282575206F7574206F662079
:10C86C00257520656C656D656E7473290D0A092D2F
:10C87C00204D6178696D756D3A092575252520283F
:10C88C002575206F7574206F6620257520656C6585
:10C89C006D656E7473290D0A0D0A0062616C6C6F04
:10C8AC006300436F6D6D616E647320666F7220421E
:10C8BC00414C4C4F43206D616E6167656D656E74C4
:10C8CC0000737461747573005072696E74207374A4
:10C8DC0061747573206F662062616C6C6F63206984
:10C8EC006E7374616E6365732E00000000000000AF
:10C8FC0000C90200CDC80200D4C80200000000002C
:10C90C000988020000000000000000000000000088
:10C91C0000000000A7C80200AEC80200F8C8020060
:10C92C00098802001B5B256443001B5B25644100E6
:10C93C001B5B256444001B5B256442006E6F7420F6
:10C94C007465726D696E617465643A2025630A00C2
:10C95C003A20636F6D6D616E64206E6F7420666F2C
:10C96C00756E64002D68002D2D68656C7000506C20
:10C97C0065617365207370656369667920612073E6
:10C98C007562636F6D6D616E642E0A005461622076
:10C99C0066756E6374696F6E3A20636F6D6D616E50
:10C9AC00647320636F756E746572206F7665726642
:10C9BC006C6F7765642E0A000A25732573000A25AF
:10C9CC0073004F7074696F6E733A0A002020252D26
:10C9DC002A733A0053686F7720636F6D6D616E64D4
:10C9EC002068656C702E002020257325732573003C
:10C9FC00537562636F6D6D616E64733A0A002573D3
:10CA0C003A2077726F6E6720706172616D65746524
:10CA1C007220636F756E740A0025733A2573257343
:10CA2C000A0020756E6B6E6F776E20706172616D8F
:10CA3C00657465723A20004E6F20726573706F6E6C
:10CA4C0073652066726F6D20746865207465726DF5
:10CA5C00696E616C2C20617373756D656420383060
:10CA6C007832342073637265656E2073697A650A57
:10CA7C00005B2533645D2025730A006F66660045F4
:10CA8C0063686F207374617475733A2025730A00A0
:10CA9C004C6F7374206C6F67733A2025750A4D6167
:10CAAC0078206C6F67207175657565207574696C7D
:10CABC00697A6174696F6E3A2025752525205B258E
